:020000040800F2
:10000000000003203D0F0008A1590008A95900086D
:10001000B1590008B9590008C15900080000000092
:10002000000000000000000000000000C9590008A6
:10003000D759000800000000E5590008F3590008EE
:10004000910F0008910F0008910F0008715A0008E5
:10005000910F0008910F0008910F0008910F000800
:10006000910F0008910F0008910F0008910F0008F0
:10007000910F0008910F0008910F0008910F0008E0
:10008000910F0008910F0008910F0008910F0008D0
:10009000910F0008910F0008910F0008910F0008C0
:1000A000910F0008910F0008655A0008910F000891
:1000B000910F0008910F0008910F0008910F0008A0
:1000C000910F0008910F0008910F0008910F000890
:1000D000015A0008910F0008910F0008910F0008C5
:1000E0004D5A0008910F0008910F0008910F000869
:1000F000355A0008415A0008155A0008910F0008A7
:10010000910F0008910F0008910F0008910F00084F
:10011000910F0008910F0008910F0008910F00083F
:10012000910F0008910F0008215A0008910F000854
:0C013000910F0008910F0008910F0008CB
:1001400010B5054C237833B9044B13B10448AFF311
:1001500000800123237010BDF00700200000000084
:10016000CC53020808B5034B1BB103490348AFF356
:10017000008008BD00000000F4070020CC530208F6
:1001800001F0FF01102A2BDB10F0070F08D010F848
:10019000013B013A8B422DD010F0070F42B3F6D14C
:1001A000F0B441EA012141EA014122F007047FF065
:1001B00000070023F0E80256083C85EA010586EABC
:1001C000010685FA47F5A3FA87F586FA47F6A5FAF8
:1001D00087F68EB9EED1F0BC01F0FF0102F0070204
:1001E00032B110F8013B013A83EA010313B1F8D1AF
:1001F0000020704701387047002D06BF3546033890
:10020000073815F0010F07D1013015F4807F02BFC8
:10021000013015F4C03F0130F0BC0138704700BF19
:10022000034613F8012B002AFBD1181A0138704736
:1002300081F0004102E000BF83F0004330B54FEA97
:1002400041044FEA430594EA050F08BF90EA020F04
:100250001FBF54EA000C55EA020C7FEA645C7FEA97
:10026000655C00F0E2804FEA5454D4EB5555B8BFBA
:100270006D420CDD2C4480EA020281EA030382EA2B
:10028000000083EA010180EA020281EA0303362DBD
:1002900088BF30BD11F0004F4FEA01314FF4801C90
:1002A0004CEA113102D0404261EB410113F0004FA2
:1002B0004FEA03334CEA133302D0524263EB430359
:1002C00094EA050F00F0A780A4F10104D5F1200EF7
:1002D0000DDB02FA0EFC22FA05F2801841F1000152
:1002E00003FA0EF2801843FA05F359410EE0A5F126
:1002F00020050EF1200E012A03FA0EFC28BF4CF057
:10030000020C43FA05F3C01851EBE37101F000450C
:1003100007D54FF0000EDCF1000C7EEB00006EEB19
:100320000101B1F5801F1BD3B1F5001F0CD34908A3
:100330005FEA30004FEA3C0C04F101044FEA4452FA
:1003400012F5800F80F09A80BCF1004F08BF5FEA81
:10035000500C50F1000041EB045141EA050130BD61
:100360005FEA4C0C404141EB0101013C28BFB1F573
:10037000801FE9D291F0000F04BF01460020B1FABE
:1003800081F308BF2033A3F10B03B3F120020CDA91
:100390000C3208DD02F1140CC2F10C0201FA0CF06F
:1003A00021FA02F10CE002F11402D8BFC2F1200CD4
:1003B00001FA02F120FA0CFCDCBF41EA0C0190408A
:1003C000E41AA2BF01EB0451294330BD6FEA0404D3
:1003D0001F3C1CDA0C340EDC04F11404C4F12002BE
:1003E00020FA04F001FA02F340EA030021FA04F3D0
:1003F00045EA030130BDC4F10C04C4F1200220FA27
:1004000002F001FA04F340EA0300294630BD21FA64
:1004100004F0294630BD94F0000F83F4801306BF2A
:1004200081F480110134013D4EE77FEA645C18BF1E
:100430007FEA655C29D094EA050F08BF90EA020FB5
:1004400005D054EA000C04BF1946104630BD91EAAD
:10045000030F1EBF0021002030BD5FEA545C05D1B0
:100460004000494128BF41F0004130BD14F58004EF
:100470003CBF01F5801130BD01F0004545F0FE4163
:1004800041F470014FF0000030BD7FEA645C1ABF98
:10049000194610467FEA655C1CBF0B46024650EACF
:1004A000013406BF52EA033591EA030F41F40021FB
:1004B00030BD00BF90F0000F04BF0021704730B581
:1004C0004FF4806404F132044FF000054FF0000156
:1004D00050E700BF90F0000F04BF0021704730B517
:1004E0004FF4806404F1320410F0004548BF4042EC
:1004F0004FF000013EE700BF42004FEAE2014FEA41
:1005000031014FEA02701FBF12F07F4393F07F4F1B
:1005100081F06051704732F07F4208BF704793F01E
:100520007F4F04BF41F40021704730B54FF4607431
:1005300001F0004521F000411CE700BF50EA010234
:1005400008BF704730B54FF000050AE050EA0102DD
:1005500008BF704730B511F0004502D5404261EB4D
:1005600041014FF4806404F132045FEA915C3FF48E
:10057000D8AE4FF003025FEADC0C18BF03325FEA2B
:10058000DC0C18BF033202EBDC02C2F1200300FADC
:1005900003FC20FA02F001FA03FE40EA0E0021FA01
:1005A00002F11444BDE600BF70B54FF0FF0C4CF4EF
:1005B000E06C1CEA11541DBF1CEA135594EA0C0FA1
:1005C00095EA0C0F00F0DEF82C4481EA030621EADC
:1005D0004C5123EA4C5350EA013518BF52EA033517
:1005E00041F4801143F4801338D0A0FB02CE4FF0C9
:1005F0000005E1FB02E506F00042E0FB03E54FF0F9
:100600000006E1FB03569CF0000F18BF4EF0010EF0
:10061000A4F1FF04B6F5007F64F5407404D25FEAEC
:100620004E0E6D4146EB060642EAC62141EA55519F
:100630004FEAC52040EA5E504FEACE2EB4F1FD0CE1
:1006400088BFBCF5E06F1ED8BEF1004F08BF5FEA5F
:10065000500E50F1000041EB045170BD06F0004611
:1006600046EA010140EA020081EA0301B4EB5C04BE
:10067000C2BFD4EB0C0541EA045170BD41F48011B6
:100680004FF0000E013C00F3AB8014F1360FDEBFDB
:10069000002001F0004170BDC4F10004203C35DAB7
:1006A0000C341BDC04F11404C4F1200500FA05F33A
:1006B00020FA04F001FA05F240EA020001F00042DB
:1006C00021F0004110EBD37021FA04F642EB060151
:1006D0005EEA430E08BF20EAD37070BDC4F10C047B
:1006E000C4F1200500FA04F320FA05F001FA04F23F
:1006F00040EA020001F0004110EBD37041F100012B
:100700005EEA430E08BF20EAD37070BDC4F1200535
:1007100000FA05F24EEA020E20FA04F301FA05F29D
:1007200043EA020321FA04F001F0004121FA04F245
:1007300020EA020000EBD3705EEA430E08BF20EA15
:10074000D37070BD94F0000F0FD101F0004640004F
:1007500041EB010111F4801F08BF013CF7D041EAD1
:10076000060195F0000F18BF704703F000465200D5
:1007700043EB030313F4801F08BF013DF7D043EAA6
:100780000603704794EA0C0F0CEA135518BF95EA5C
:100790000C0F0CD050EA410618BF52EA4306D1D1E3
:1007A00081EA030101F000414FF0000070BD50EA02
:1007B000410606BF1046194652EA430619D094EA8C
:1007C0000C0F02D150EA013613D195EA0C0F05D176
:1007D00052EA03361CBF104619460AD181EA0301CA
:1007E00001F0004141F0FE4141F470014FF0000082
:1007F00070BD41F0FE4141F4780170BD70B54FF01D
:10080000FF0C4CF4E06C1CEA11541DBF1CEA13559C
:1008100094EA0C0F95EA0C0F00F0A7F8A4EB05047E
:1008200081EA030E52EA03354FEA013100F0888075
:100830004FEA03334FF0805545EA131343EA12633E
:100840004FEA022245EA111545EA10654FEA0026F3
:100850000EF000419D4208BF964244F1FD0404F5AC
:10086000407402D25B084FEA3202B61A65EB030508
:100870005B084FEA32024FF480104FF4002CB6EBC5
:10088000020E75EB030E22BFB61A754640EA0C0045
:100890005B084FEA3202B6EB020E75EB030E22BF85
:1008A000B61A754640EA5C005B084FEA3202B6EBC6
:1008B000020E75EB030E22BFB61A754640EA9C0085
:1008C0005B084FEA3202B6EB020E75EB030E22BF55
:1008D000B61A754640EADC0055EA060E18D04FEA13
:1008E000051545EA16754FEA06164FEAC30343EAB3
:1008F00052734FEAC2025FEA1C1CC0D111F4801F80
:100900000BD141EA00014FF000004FF0004CB6E778
:1009100011F4801F04BF01430020B4F1FD0C88BF17
:10092000BCF5E06F3FF6AFAEB5EB030C04BFB6EB22
:10093000020C5FEA500C50F1000041EB045170BD15
:100940000EF0004E4EEA113114EB5C04C2BFD4EB42
:100950000C0541EA045170BD41F480114FF0000EC6
:10096000013C90E645EA060E8DE60CEA135594EA42
:100970000C0F08BF95EA0C0F3FF43BAF94EA0C0F45
:100980000AD150EA01347FF434AF95EA0C0F7FF4BA
:1009900025AF104619462CE795EA0C0F06D152EA0E
:1009A00003353FF4FDAE1046194622E750EA4106F2
:1009B00018BF52EA43067FF4C5AE50EA41047FF403
:1009C0000DAF52EA43057FF4EBAE12E74FF0FF3C68
:1009D00006E000BF4FF0010C02E000BF4FF0010C39
:1009E0004DF804CD4FEA410C7FEA6C5C4FEA430CB2
:1009F00018BF7FEA6C5C1BD001B050EA410C0CBF01
:100A000052EA430C91EA030F02BF90EA020F002062
:100A1000704710F1000F91EA030F58BF994208BFC9
:100A200090422CBFD8176FEAE37040F00100704786
:100A30004FEA410C7FEA6C5C02D150EA013C07D1DD
:100A40004FEA430C7FEA6C5CD6D152EA033CD3D028
:100A50005DF8040B704700BF8446104662468C4622
:100A60001946634600E000BF01B5FFF7B7FF002855
:100A700048BF10F1000F01BD4DF808EDFFF7F4FF7E
:100A80000CBF012000205DF808FB00BF4DF808ED09
:100A9000FFF7EAFF34BF012000205DF808FB00BF2C
:100AA0004DF808EDFFF7E0FF94BF012000205DF84E
:100AB00008FB00BF4DF808EDFFF7CEFF94BF012003
:100AC00000205DF808FB00BF4DF808EDFFF7C4FFFC
:100AD00034BF012000205DF808FB00BF4FEA410C45
:100AE0007FEA6C5C02D150EA013C0AD14FEA430C28
:100AF0007FEA6C5C02D152EA033C02D14FF0000065
:100B000070474FF0010070474FEA410212F50012A2
:100B100015D211D56FF47873B3EB625212D94FEA44
:100B2000C12343F0004343EA505311F0004F23FA2E
:100B300002F018BF404270474FF00000704750EA83
:100B4000013005D111F0004008BF6FF00040704740
:100B50004FF00000704700BF4FEA4102B2F1E0439E
:100B600024BFB3F5001CDCF1FE5C0DD901F0004C94
:100B70004FEAC0024CEA5070B2F1004F40EB8300E4
:100B800008BF20F00100704711F0804F21D113F110
:100B90003872BCBF01F00040704741F480114FEA49
:100BA0005252C2F11802C2F1200C10FA0CF320FAD2
:100BB00002F018BF40F001004FEAC1234FEAD323EF
:100BC00003FA0CFC40EA0C0023FA02F34FEA430359
:100BD000CCE77FEA625307D150EA01331EBF4FF0E2
:100BE000FE4040F44000704701F0004040F0FE40FD
:100BF00040F40000704700BF53B94AB9002908BF4C
:100C000000281CBF4FF0FF314FF0FF3000F088B9D3
:100C1000ADF1080C6DE904CE00F006F8DDF804E053
:100C2000DDE9022304B070472DE9F047089D0F4627
:100C300004468C46002B48D18A42164661D9B2FA46
:100C400082F34BB1C3F1200201FA03FC20FA02F255
:100C50009E4042EA0C0C9C404FEA164EB7B2BCFBD9
:100C6000FEF1220C0EFB11CC42EA0C4201FB07F014
:100C7000904209D9B21801F1FF3C80F0EE80904219
:100C800040F2EB8002393244121AA4B2B2FBFEF0F9
:100C90000EFB102244EA024400FB07F7A74209D9E1
:100CA000341900F1FF3280F0DA80A74240F2D78099
:100CB0003444023840EA0140E41B00211DB1DC400D
:100CC0000023C5E90043BDE8F0878B4206D90DB18A
:100CD000C5E9000100210846BDE8F087B3FA83F1B9
:100CE000002948D1BB4202D3824200F20781841A14
:100CF00067EB030201209446002DE4D0C5E9004CC7
:100D0000E1E7002A00F09280B2FA82F3002B40F073
:100D1000A8808A1A4FEA164E1FFA86FC0121200C81
:100D2000B2FBFEF70EFB172240EA02420CFB07F073
:100D3000904207D9B21807F1FF3802D2904200F270
:100D4000E2804746121AA4B2B2FBFEF00EFB10225C
:100D500044EA02440CFB00FCA44507D9341900F115
:100D6000FF3202D2A44500F2CB801046A4EB0C0463
:100D700040EA0740A2E7C1F120068B4022FA06FCB8
:100D80004CEA030C07FA01F420FA06F3F7404FEAA5
:100D90001C49234300FA01F81FFA8CFEB7FBF9F057
:100DA0001C0C09FB107744EA074400FB0EF7A7422E
:100DB00002FA01F20AD91CEB040400F1FF3A80F0B8
:100DC0009B80A74240F2988002386444E41B9FB2A3
:100DD000B4FBF9F309FB134447EA044403FB0EFE9A
:100DE000A64509D91CEB040403F1FF3780F082808B
:100DF000A6457FD9023B644443EA0040A4EB0E04BD
:100E0000A0FB02E7BC427346B94663D360D05DB134
:100E1000B8EB030264EB090404FA06F622FA01F3C4
:100E20001E43CC40C5E9006400214CE76208480835
:100E300042EAC1710B0C43EA00438AB242EA034220
:100E4000B3FBF6F1E407B4463746B6461F23B0FBC2
:100E5000F6F0D21B41EA004161E7614614E7104613
:100E600028E7C3F1200120FA01F29E4027FA01F1A0
:100E70009F403A434FEA164E1FFA86FCB1FBFEF73D
:100E80000EFB1710110C41EA004107FB0CF88845D6
:100E900004FA03F43AD9711807F1FF3001D28845FA
:100EA0001FD8A1EB0801B1FBFEF808FB0CF70EFB05
:100EB000181192B242EA0142BA422FD2B21808F196
:100EC000FF31C6D2BA42C4D2A8F102013244C0E70F
:100ED000F0459CD2BEEB020367EB0C070138B94624
:100EE00095E7A6EB08084144B81EB1FBFEF808FBE5
:100EF0000CF7DCE73B467FE7504667E70846FBE632
:100F00003444023832E7023F32441BE7A1EB0801C8
:100F10003846B1FBFEF808FB0CF7C8E7414698E7F6
:100F2000704700BFD458C4500433C4188C42F9D35E
:100F30007047036004308842FBD370470C488546F5
:100F400012F02CF80B480C490C4A0023FFF7EDFF78
:100F50000B480C490023FFF7EEFF0B480B49002319
:100F6000FFF7E9FF20F028FD04F090F8FEE700000D
:100F7000000003200800002098070020886D020868
:100F8000F00700203C250020E4010320670A03202D
:100F9000FEE7000080B483B000AF7860064BD3F862
:100FA000902005497B681343C1F8903000BF0C378F
:100FB000BD465DF8047B70470008005880B485B0DA
:100FC00000AF78604FF0B043DA6C4FF0B0417B680F
:100FD0001343CB644FF0B043DA6C7B681340FB6083
:100FE000FB6800BF1437BD465DF8047B704780B4D2
:100FF00085B000AF78604FF0B043D3F84C214FF08C
:10100000B0417B681343C1F84C314FF0B043D3F883
:101010004C217B681340FB60FB6800BF1437BD4662
:101020005DF8047B7047000080B500AF084B0022DC
:101030001A6012F0B7F812F0BBF84FF48030FFF7E7
:10104000A9FF00F023F800F0C3F800BF80BD00BF87
:101050000C080020B0B588B000AF0B4B3C1D1D46FE
:101060000FCD0FC495E8070003C422800234130C8F
:1010700023701CF091FF3B1D18461CF0E6F900BFE1
:101080002037BD46B0BD00BFE853020880B588B028
:1010900000AF3B1D00221A605A609A60DA601A6144
:1010A0000023BB8300237B8300233B830023FB7748
:1010B00036E0FB7F434ADB0013449B79002B2CD0A6
:1010C000FB7F404A52F833303F4A93421BD03E4A9E
:1010D000934221D8B3F1904F03D03C4A934209D0B8
:1010E0001AE0FB7F374ADB0013449A88BB8B13431B
:1010F000BB8312E0FB7F334ADB0013449A887B8B6F
:1011000013437B8309E0FB7F2E4ADB0013449A885C
:101110003B8B13433B8300E000BFFB7F0133FB7736
:10112000FB7F252BC5D90023FB600123BB60032374
:101130003B61BB8B002B14D0BB8B7B600120FFF786
:101140003DFF0120FFF753FF3B1D19464FF0904034
:1011500012F02EFDBB8B002219464FF0904012F08A
:1011600075FF7B8B002B12D07B8B7B600220FFF7FF
:1011700025FF0220FFF73BFF3B1D1946134812F0E5
:1011800017FD7B8B00221946104812F05FFF3B8B46
:10119000002B13D03B8B7B600420FFF70FFF042054
:1011A000FFF725FF3B1D1946074812F001FD3B8B59
:1011B00000221946044812F049FF00BF00BF203743
:1011C000BD4680BDEC5C02080008004800040048F1
:1011D00080B400AF00BFBD465DF8047B70470000DF
:1011E00080B483B000AF7860074BD3F8803023F031
:1011F000070205497B681343C1F8803000BF0C37F4
:10120000BD465DF8047B70470004005880B483B08D
:1012100000AF7860064BD3F8902005497B681343F4
:10122000C1F8903000BF0C37BD465DF8047B7047B5
:101230000008005880B483B000AF78604FF0B0432E
:101240000A4AC3F89C204FF0B043D3F89C3023F4F3
:101250007C527B681B024FF0B0411343C1F89C30B5
:1012600000BF0C37BD465DF8047B7047FECAFECA5E
:1012700080B483B000AF78604FF0B0439B6823F434
:1012800000424FF0B0417B6813438B6000BF0C37C6
:10129000BD465DF8047B704780B400AF044B1B680B
:1012A000C3F30B031846BD465DF8047B704700BFCF
:1012B000002004E080B400AF044B1B681B0C9BB201
:1012C0001846BD465DF8047B704700BF002004E06F
:1012D00080B400AF054B1B69044A23F0040313617B
:1012E00000BFBD465DF8047B704700BF00ED00E025
:1012F00080B483B000AF78607B68FF225A6200BF81
:101300000C37BD465DF8047B704780B483B000AFF6
:1013100078607B68CA225A627B6853225A6200BF97
:101320000C37BD465DF8047B704780B483B000AFD6
:10133000786039607B689B6823F007023B681A433A
:101340007B689A6000BF0C37BD465DF8047B704730
:1013500080B500AF044B4FF400421A6100F09FF8D3
:1013600000F0A4F800BF80BD0040005880B500AF79
:1013700000F0B0F800F0C8F82249002003F02CFB80
:10138000FFF752FE0021002010F026FC1E481EF040
:1013900067FD00201EF0BAFD0021002010F040FE85
:1013A000002010F0E9FC002010F012FD17481EF09C
:1013B000F5FDFF201EF0CAFD00201EF0DBFD002120
:1013C000002010F02DFE002010F002FD00F05DF86E
:1013D0000321002011F026F80321002011F0AAF8C3
:1013E0000121002010F02AFA0121002010F0AEFAAD
:1013F00000F0C6FA00F061F902F0E0F900F092F8AE
:1014000000BF80BDE00F002018600208C00500206A
:1014100080B400AF00BFBD465DF8047B704780B567
:1014200000AF5020FFF7F2FE00BF80BD80B586B050
:1014300000AF3B1D00221A605A609A60DA601A61A0
:101440000FF0F2F980237B600223BB600223FB6074
:1014500000233B6105237B613B1D19464FF0904003
:1014600012F0A6FB00BF1837BD4680BD80B582B024
:1014700000AF78600FF07AF978680FF001FAFFF7A3
:10148000D5FF00BF0837BD4680BD80B500AF0FF067
:101490006DF90FF001FAFFF7C9FF00BF80BD80B4FE
:1014A00000AF00BFBD465DF8047B704780B582B0D9
:1014B00000AF00201BF064FE78607B68002B05D035
:1014C0007B689B791846FFF7B5FE00BF00BF083761
:1014D000BD4680BD80B500AFFFF79AFFFFF79FFFC5
:1014E00000F002F800BF80BD80B500AF0548FFF7EF
:1014F0000CFF00210348FFF718FF0248FFF7F8FE32
:1015000000BF80BD0028004080B500AF4FF4004010
:10151000FFF7AEFE1FF03EF80420FFF761FE00BFAC
:1015200080BD000080B588B000AF1CF07BFB114A85
:10153000002120201FF0F2F90F4B3B600F4B7B6026
:101540003B4619460E481CF05BF80E4BBB600E4B39
:10155000FB600E4B3B6140F23C537B6107F108039B
:1015600018461CF0A5FC1CF057FB00BF2037BD46F9
:1015700080BD00BF39D6010834070320911500084B
:10158000A91500084C09032040080320F801032096
:1015900080B483B000AF0346FB7100BF0C37BD467B
:1015A0005DF8047B7047000080B588B000AF7860BC
:1015B0007B685B680B33FB61FB691B889BB2A3F5FF
:1015C0001243072B1FD801A252F823F0ED15000893
:1015D000FF15000807160008071600080716000880
:1015E00007160008071600080716000807F10C0385
:1015F00018461BF057FF786800F01BF804E0786885
:1016000000F006F800E000BF00BF2037BD4680BDF7
:1016100080B485B000AF78607B685B680B33FB609B
:10162000FB680233BB6000BF1437BD465DF8047B26
:10163000704780B58AB000AF786007F108030022D8
:101640001A605A609A60DA6000237B6200233B6272
:101650007B685B680B33FB61FB690233BB61BB6971
:101660001B78002B1DD1FFF7F5FC0F233B727F2366
:10167000BB72FFF71FFE78627B6A9BB2BB82FFF7EB
:101680000BFE38623B6A9BB2FB8207F108031846E7
:101690001BF0F2FE09F0C8FB002101201EF08CFFB8
:1016A00007E0BB691B78012B03D17B6800221A700D
:1016B00000BF00BF2837BD4680BD80B500AF012107
:1016C00000200FF011F9012101200FF00DF900BFEA
:1016D00080BD80B584B000AF786011F03FFDB86088
:1016E0007B68FB60FB68B3F1FF3F0AD011F04EFD51
:1016F00003461A46FB681344FB6002E0FFF7E8FD6F
:1017000030BF11F02BFD0246BB68D31AFA689A422B
:10171000F4D800BF00BF1037BD4680BD80B500AF14
:1017200002F090F84FF0FF301EF076FF00BF80BD52
:1017300080B400AF00BFBD465DF8047B704780B544
:1017400082B000AF7860002120201FF009F900BFAF
:101750000837BD4680BD80B582B000AF78600220FA
:101760001FF06AF900BF0837BD4680BD80B582B062
:1017700000AF786002201FF07FF900BF0837BD4638
:1017800080BD80B582B000AF0346FB80FB88B3F517
:10179000805F03D0B3F5005F03D003E009F05AFD8A
:1017A00000E000BF00BF0837BD4680BD80B483B0F5
:1017B00000AF87ED010AD7ED017A9FED057A67EE5C
:1017C000877AB0EE670A0C37BD465DF8047B704738
:1017D000E02E654280B582B000AF87ED010AD7EDFB
:1017E000017ABFEE007AF4EEC77AF1EE10FA02D871
:1017F000DFED0C7A11E0D7ED017AB7EE007AF4EE66
:10180000C77AF1EE10FA02DBDFED077A05E097ED1B
:10181000010A22F0CBF8F0EE407AB0EE670A083702
:10182000BD4680BDDB0FC9BFDB0FC93F80B58EB0A1
:1018300000AFB0EE406AF0EE606AB0EE417AF0EED2
:10184000617A87ED046AC7ED056A87ED067AC7ED10
:10185000077A97ED067AD7ED077A27EE277AD7ED44
:10186000046AD7ED057A66EEA77A37EE276A97ED18
:10187000047AD7ED047A27EE277AD7ED076AD7EDF9
:10188000077A66EEA77A77EE277AB6EE007A77EED9
:10189000C77AF0EE670AB0EE460A22F0B3F8F0EE2F
:1018A000407AB0EE670AFFF781FFF0EE407AC7EDAD
:1018B000087A97ED047AD7ED067A27EE277AD7EDE6
:1018C000056AD7ED077A66EEA77A77EE677A77EE44
:1018D000A77AB0EE670AFFF77DFFF0EE407AB0EE30
:1018E000670AFFF763FFF0EE407AC7ED097A97EDDC
:1018F000057AD7ED067A27EE277AD7ED046AD7ED79
:10190000077A66EEA77A37EE276A97ED047AD7ED65
:10191000047A27EE277AD7ED056AD7ED057A66EEC9
:10192000A77A77EE277AB6EE007A77EEC77AF0EEEE
:10193000670AB0EE460A22F065F8F0EE407AB0EEA3
:10194000670AFFF733FFF0EE407AC7ED0A7A07F136
:101950002C0307F1200207CA83E80700F96A3A6BF3
:101960007B6B06EE901A07EE102A07EE903AB0EE67
:10197000660AF0EE470AB0EE671A3837BD4680BDFA
:10198000B0B5A0B000AF0023A7F87E300FF008FA82
:1019900007F118036322002118461FF0B5FF07F175
:1019A00018031946234804F02FF90346002B1FD1D2
:1019B00007F17E031A46C0211E4809F03DF8034690
:1019C000002B14D1B7F87E304EF6AA62934210D1A4
:1019D000184804F03FF90346002B07D1154B0122AC
:1019E000C3F86421134809F02BF902E0FEE7FEE793
:1019F000FEE711481DF09AF9104B3C461D460FCDED
:101A00000FC495E8030084E803003B4619460A48E2
:101A10001DF002FA0A4A002140201EF07FFF094B08
:101A200001220949002003F0B1F800BF8037BD460C
:101A3000B0BD00BF080000201408002004540208B4
:101A4000E91A0008B91A00081008002080B500AF94
:101A5000044B1B784FF48061184603F095F900BFE2
:101A600080BD00BF1008002080B500AF034B1B787D
:101A7000184603F005F900BF80BD00BF1008002024
:101A800080B500AF0A4B1B785A1C0A4B83FB02310E
:101A9000D317C91A0B465B000B44D11ACAB2044BC8
:101AA0001A70002140201EF05BFF00BF80BD00BF08
:101AB000110800205655555580B500AF0021402033
:101AC0001EF04EFF00BF80BD80B588B000AF3B1D4B
:101AD0001946044805F0FCFABB8918462037BD4674
:101AE00080BD00BF0800002080B598B000AF07F1AE
:101AF00030031A460221002010F05EFD07F1240396
:101B00001A460121002010F057FD3B6B07EE903A7A
:101B1000B8EEE77ADFED7B6AC7EE267AC7ED067A84
:101B20007B6B07EE903AB8EEE77ADFED766AC7EEA8
:101B3000267AC7ED077ABB6B07EE903AB8EEE77AE4
:101B4000DFED706AC7EE267AC7ED087A7B6A07EE8A
:101B5000903AB8EEE77ADFED6B6AC7EE267AC7ED0A
:101B6000037ABB6A07EE903AB8EEE77ADFED656A72
:101B7000C7EE267AC7ED047AFB6A07EE903AB8EE14
:101B8000E77ADFED606AC7EE267AC7ED057A97ED52
:101B9000065AD7ED075A97ED086AD7ED036A97ED15
:101BA000047AD7ED057AB6EE003AF0EE451AB0EEBB
:101BB000652AF0EE462AB0EE660AF0EE470AB0EE6D
:101BC000671A51481EF004F80021002010F028FA8E
:101BD0004E481EF0E3F94E4B1B78022B12D0022B1D
:101BE00013DC002B02D0012B03D00EE000F092F8A2
:101BF0000CE007F1240207F130031146184600F00B
:101C0000E5F803E000F046F900E000BF002010F026
:101C1000DFF83D481EF059F80346BB603A481EF015
:101C200031F8B0EE406AF0EE606AB0EE417AF0EE64
:101C3000617A87ED0F6AC7ED106A87ED117AC7EDFB
:101C4000127A97ED0F6AD7ED106A97ED117AD7EDFA
:101C5000127AB0EE460AF0EE660AB0EE471AF0EEDF
:101C6000671AFFF7E3FDF0EE406AB0EE607AF0EE3F
:101C7000417AC7ED136A87ED147AC7ED157A3B6D8B
:101C8000FB65D7ED177AF5EEC07AF1EE10FA04D5C0
:101C9000D7ED177AF1EE677A01E0D7ED177AC7ED45
:101CA000167A3B1D00210A461A800A469A703B7A32
:101CB000002B02D00123BB711BE0D7ED167AB2EEE8
:101CC0000E7AF4EEC77AF1EE10FA02D801237B7196
:101CD0000FE0D7ED167AB3EE0E7AF4EEC77AF1EE96
:101CE00010FA04D801233B7101237B7101E0012329
:101CF0003B713B1D1846FFF7B9FB00BF6037BD467F
:101D000080BD00BF00007A4414080020C0050020F8
:101D10001108002080B58EB000AFFFF7D5FE034656
:101D2000FB860123224A022100201EF0DBF9FB8EF4
:101D3000B3F5FA6F1DD2FB8E1E4AA2FB0323DB080C
:101D4000BB86BB8E07F11C001B4A16211FF0AEFCA0
:101D5000BB8E1E2B06D83B1D184A162118461FF0B5
:101D6000A5FC13E03B1D164A162118461FF09EFCE9
:101D70000CE007F11C03134A162118461FF096FCCD
:101D80003B1D114A162118461FF090FC07F11C025A
:101D900003231C2100201EF0A5F93A1D03232E2148
:101DA00000201EF09FF900BF3837BD4680BD00BF40
:101DB0001C540208CDCCCCCC2C5402084054020850
:101DC00054540208685402087C54020890B58DB03F
:101DD00002AF786039600123294A022100201EF0F9
:101DE00081F90323274A102100201EF07BF97B682C
:101DF00019687B685B687A68926807F1080001924D
:101E000000930B46204A20211FF050FC07F10802E6
:101E100003231C2100201EF065F903231B4A2821FF
:101E200000201EF05FF93B681B68194A82FB031211
:101E30009211DB17D41A3B685B68154A82FB0312C8
:101E40009211DB17D21A3B689B68114981FB030191
:101E50008911DB17CB1A07F1080001930092234682
:101E6000094A20211FF022FC07F108020323342134
:101E700000201EF037F900BF2C37BD4690BD00BFD3
:101E800090540208A4540208B0540208BC5402083A
:101E9000D34D621080B598B002AF5C481DF0F2FEE1
:101EA000B0EE406AF0EE606AB0EE417AF0EE617A30
:101EB00087ED116AC7ED126A87ED137AC7ED147AC0
:101EC00097ED116AD7ED126A97ED137AD7ED147A70
:101ED000B0EE460AF0EE660AB0EE471AF0EE671A68
:101EE000FFF7A4FCF0EE406AB0EE607AF0EE417AC3
:101EF000C7ED066A87ED077AC7ED087A43481DF0FB
:101F0000E4FE03467B613B7D002B01D0404A00E0AC
:101F1000404A0123022100201EF0E4F8FB69184624
:101F2000FEF7EAFA02460B4607F12400CDE900234A
:101F3000394A20211FF0BAFB07F1240203231021A4
:101F400000201EF0CFF8BB691846FEF7D5FA02460E
:101F50000B4607F12400CDE90023304A20211FF071
:101F6000A5FB07F1240203231C2100201EF0BAF870
:101F70003B6A1846FEF7C0FA02460B4607F12400FA
:101F8000CDE90023264A20211FF090FB07F124020F
:101F90000323282100201EF0A5F85B233B705D235E
:101FA0007B740023BB743B46013310222D2118465D
:101FB0001FF0AAFC97ED077ADFED1A6AC7EE267AC2
:101FC000B2EE007A67EE877AFDEEE77A17EE903A86
:101FD00008337B657B6D002B01DA00237B657B6D0D
:101FE0000F2B01DD0F237B657B6D013358333B44A1
:101FF0007C2203F8582C3A460323342100201EF09B
:1020000071F800BF5837BD4680BD00BF14080020DE
:10201000C8540208DC540208F054020804550208AF
:10202000185502080000344280B485B000AF034662
:102030000A46FB8013467B717B791BB21B021AB2E6
:10204000B7F9063053401BB2FB800023FB7312E04C
:10205000B7F90630002B08DAFB885B009BB283F4EB
:10206000815383F00103FB8002E0FB885B00FB806F
:10207000FB7B0133FB73FB7B072BE9D9FB881846FD
:102080001437BD465DF8047B704780B584B000AF5F
:1020900078604FF6FF73FB817B681A78FB891146E5
:1020A0001846FFF7C1FF0346FB817B685A78FB891E
:1020B00011461846FFF7B8FF0346FB817B689A7804
:1020C000FB8911461846FFF7AFFF0346FB817B688B
:1020D000DA78FB8911461846FFF7A6FF0346FB8115
:1020E0007B689B88DAB2FB8911461846FFF79CFF94
:1020F0000346FB817B689B881B0A9BB2DAB2FB8993
:1021000011461846FFF790FF0346FB810023BB8171
:102110000DE0BB897A6813449A79FB891146184609
:10212000FFF782FF0346FB81BB890133BB817B68DC
:102130009B88BA899A42ECD3FB8918461037BD4672
:1021400080BD000080B400AF034B00221A7000BFB6
:10215000BD465DF8047B70478A08002090B5ADF558
:10216000077D00AF04460846114607F50672A2F542
:102170000672136007F50673A3F2112322461A7044
:1021800007F50673A3F2122302461A7007F50673C9
:10219000A3F213230A461A700023A7F81632B7F8E1
:1021A0002832B3F5007F04D88F4B1B78DBB2002BAD
:1021B00007D08E4B9B8901339AB28C4B9A810023B6
:1021C0000DE107F50673A3F5037301221A7007F5F5
:1021D0000673A3F5037307F50672A2F211221278B3
:1021E0005A7007F50673A3F5037307F50672A2F29A
:1021F000122212789A7007F50673A3F5037307F598
:102200000672A2F213221278DA7007F50673A3F5AC
:102210000373B7F828229A8007F50673A3F50673AF
:102220001B68002B10D0B7F82832002B0CD0B7F861
:10223000281207F50673A3F5067307F10C02901D2B
:102240000A4619681FF0E7FB07F10C031846FFF771
:102250001CFF0346A7F81432B7F816325A1CA7F829
:1022600016221A46624BAA219954B7F816325A1C04
:10227000A7F816221A465E4B55219954B7F8163224
:102280005A1CA7F816221A4607F50673A3F503731E
:102290001978574B9954B7F816325A1CA7F81622DA
:1022A0001A4607F50673A3F503735978504B9954F2
:1022B000B7F816325A1CA7F816221A4607F5067305
:1022C000A3F5037399784A4B9954B7F816325A1C00
:1022D000A7F816221A4607F50673A3F50373D978F3
:1022E000434B995407F50673A3F503739988B7F820
:1022F00016325A1CA7F816221A46C9B23C4B9954FA
:1023000007F50673A3F503739B881B0A99B2B7F808
:1023100016325A1CA7F816221A46C9B2344B9954E1
:1023200007F50673A3F503739B88002B19D0B7F844
:1023300016322F4A981807F50673A3F503739B8886
:102340001A4607F10C03063319461FF064FB07F524
:102350000673A3F503739A88B7F816321344A7F8E7
:102360001632B7F816325A1CA7F816221A46B7F8D2
:102370001432D9B21E4B9954B7F814321B0A99B2D1
:10238000B7F816325A1CA7F816221A46C9B2184BCB
:102390009954B7F816325A1CA7F816221A46144B4D
:1023A00033219954B7F81632A7F812320E4B012296
:1023B0001A70B7F812220F4B0D49002002F09CFD55
:1023C0000346002B0AD0084B00221A70074B9B894A
:1023D00001339AB2054B9A81002300E0012318468D
:1023E00007F50777BD4690BD8A080020B40E00208F
:1023F000A80C00204521000880B586B002AF034636
:102400000A46FB711346BB71FB793B73BB797B7347
:1024100007F10C03BA790221009100210520FFF792
:102420009DFE00BF1037BD4680BD80B586B002AFAF
:102430000346FB710B46BB7113467B71FB793B7303
:10244000BB797B737B79BB7307F10C03BA790321EA
:10245000009180210620FFF781FE00BF1037BD46A6
:1024600080BD80B483B000AF0346FB71FB79022BC3
:1024700002DC002B04DC07E0033B012B04D801E065
:10248000012302E0042300E0002318460C37BD4678
:102490005DF8047B704780B487B000AF034687EDDA
:1024A000020A79603A60FB737B68002B2AD03B6894
:1024B000002B27D0FB7B012B16D1D7ED027AF5EE4E
:1024C000407AF1EE10FA01D0012300E00023FB7501
:1024D0003B681B885A1C91B23A6811801A467B6887
:1024E0001344FA7D1A700EE03B681B881A467B681D
:1024F0001344BA681A603B681B8804339AB23B687D
:102500001A8000E000BF1C37BD465DF8047B7047B1
:1025100080B485B000AF0346FB710023FB600EE082
:102520000C4AFB6812F83330FA799A4204D1FB68FE
:10253000DB00084A134406E0FB680133FB60FB68DC
:10254000052BEDD9002318461437BD465DF8047BF2
:10255000704700BF9001002080B483B000AF0346F5
:10256000FB71084B1B78FA799A4205D0054AFB7932
:102570001370054B01221A7000BF0C37BD465DF881
:10258000047B7047C80E0020C101002080B582B0D6
:1025900000AF9F4B1B78FB719E4B1B780B2B00F2FF
:1025A000258101A252F823F0D9250008E925000869
:1025B000072600082B2600084F260008732600086F
:1025C00097260008BD2600082D2700086D27000863
:1025D0007D2700089D270008FB79AA2B40F00A817F
:1025E0008C4B01221A7005E1FB79552B07D1894BE1
:1025F00002221A70884B4FF6FF721A80FDE0854B5D
:1026000000221A70F9E0854AFB791370824B1B880F
:10261000FA7911461846FFF707FD03461A467E4B26
:102620001A807C4B03221A70E7E07C4AFB795370D6
:10263000794B1B88FA7911461846FFF7F5FC0346DB
:102640001A46754B1A80734B04221A70D5E0734AF0
:10265000FB799370704B1B88FA7911461846FFF787
:10266000E3FC03461A466C4B1A806A4B05221A702B
:10267000C3E06A4AFB79D370674B1B88FA7911462D
:102680001846FFF7D1FC03461A46634B1A80614B8C
:1026900006221A70B1E0FB799AB2604B9A805E4BC9
:1026A0001B88FA7911461846FFF7BEFC03461A4606
:1026B000594B1A80574B07221A709EE0574B9B8844
:1026C0001AB2FB791BB21B021BB213431BB29AB2A4
:1026D000524B9A80504B1B88FA7911461846FFF7E7
:1026E000A3FC03461A464C4B1A804D4B00221A801D
:1026F0004A4B9B88B3F5007F0CD94A4B1B890133A9
:102700009AB2484B1A81474B0122DA81414B002291
:102710001A7072E0414B9B88002B03D13D4B09227C
:102720001A706AE03B4B08221A7066E03C4B1B882B
:102730005A1C91B23A4A11801A46384B1344FA791E
:102740009A71354B1B88FA7911461846FFF76CFCD5
:1027500003461A46304B1A80304B9A88304B1B8800
:102760009A4249D82B4B09221A7045E0FB799AB25C
:102770002D4B1A80274B0A221A703EE0FB791BB2C0
:102780001B021AB2284B1B881BB213431BB29AB20E
:10279000254B1A801F4B0B221A702EE0FB79332B2E
:1027A00012D1214B1A881C4B1B889A420CD11F4A0C
:1027B0001A4B1046194640F206231A461FF02BF911
:1027C0001B4B01221A700DE0164B1B8901339AB284
:1027D000144B1A81FB79332B01D1022200E0012234
:1027E000104BDA810B4B00221A7006E0094B0022D5
:1027F0001A7002E000BF00E000BF0E4B0122044946
:10280000002002F055FB00BF0837BD4680BD00BF69
:10281000880800209E0C0020A20C002090080020B8
:10282000A00C0020B40E0020A40C0020980A002068
:10283000890800208D25000880B588B002AF786037
:102840000A4B1B68FB60FB683B6101233B757B689F
:10285000DA7807F110030521009100210220FFF72B
:102860007DFC00BF1837BD4680BD00BF8C0800202E
:1028700090B58FB002AF786007F1100300210A46CF
:102880001A800A469A7001F0E9F80346FB8100239A
:10289000BB60002387F82F30BB6843F00103BB60A7
:1028A000BB6843F00203BB60BB6843F00403BB603A
:1028B000BB6843F00803BB60BB6843F01003BB6018
:1028C00007F114031922002118461FF01DF897F88C
:1028D0002F305A1C87F82F2030333B44012203F855
:1028E0001C2C97F82F305A1C87F82F2030333B448C
:1028F000012203F81C2C97F82F3007F1140213441F
:10290000FA891A8097F82F30023387F82F3097F81A
:102910002F3007F114021344BA681A6097F82F3069
:10292000043387F82F3097F82F305A1C87F82F2060
:102930001C4601F031FC03461A4604F130033B44C7
:1029400003F81C2C97F82F305A1C87F82F201946B3
:10295000214B1A7801F130033B4403F81C2C07F19A
:1029600010031946002010F071F997F82F305A1C07
:1029700087F82F203A7C30333B4403F81C2C97F81F
:102980002F305A1C87F82F207A7C30333B4403F8D1
:102990001C2C97F82F305A1C87F82F20BA7C303324
:1029A0003B4403F81C2C97F82F3007F11402134412
:1029B0000C220A4918461FF02EF87B68DA7807F1D6
:1029C00014031921009100210420FFF7C7FB00BF69
:1029D0003437BD4690BD00BFC80E00202C550208FC
:1029E00080B5ADF50A7D02AF07F50873A3F507734F
:1029F000186007F50873A3F2122300221A8001F071
:102A00002DF803461A4607F50873A3F505731A80D7
:102A100007F50873A3F212231B881A4607F1100367
:102A2000134407F50872A2F5057212881A8007F59B
:102A30000873A3F212231B8802339AB207F50873B6
:102A4000A3F212231A800023A7F81E327FE1B7F801
:102A50001E32184601F00AF8C7F81802D7F81832E3
:102A6000002B00F06E81D7F818329B781846FFF7DC
:102A7000F8FC0346A7F81632D7F818325B681846F8
:102A8000FDF7CEFB034687F81532D7F818329B685E
:102A90001846FDF7C5FB034687F81432D7F81832FD
:102AA000DB681846FDF7BCFB034687F81332B7F81E
:102AB00016321A46520013449AB297F815329BB256
:102AC00013449AB297F814329BB213449AB297F80F
:102AD00013329BB213449BB20733A7F8103207F5A9
:102AE0000873A3F212231B881A46B7F81032134456
:102AF000B3F5007F00F23681D7F81832198807F550
:102B00000873A3F212231B885A1C90B207F50872AF
:102B1000A2F2122210801A46C9B207F50873A3F573
:102B200004739954D7F818321B881B0A99B207F519
:102B30000873A3F212231B885A1C90B207F508727F
:102B4000A2F2122210801A46C9B207F50873A3F543
:102B50000473995407F50873A3F212231B885A1CB7
:102B600091B207F50872A2F2122211801A46D7F824
:102B70001832997807F50873A3F50473995407F58B
:102B80000873A3F212231B885A1C91B207F508722E
:102B9000A2F2122211801A46D7F81832D97807F516
:102BA0000873A3F504739954D7F818329878D7F8B6
:102BB0001832D3ED047A07F10E0207F1100319461B
:102BC000B0EE670AFFF767FCD7F818329878D7F8A5
:102BD0001832D3ED057A07F10E0207F110031946FA
:102BE000B0EE670AFFF757FCD7F818329878D7F895
:102BF0001832D3ED067A07F10E0207F110031946D9
:102C0000B0EE670AFFF747FC07F50873A3F212233B
:102C10001B885A1C91B207F50872A2F21222118089
:102C2000194607F50873A3F5047397F815225A544B
:102C300007F50873A3F212231B881A4607F1100345
:102C40009818D7F818325B6897F8152219461EF0C5
:102C5000E2FE97F815329AB207F50873A3F2122331
:102C60001B8813449AB207F50873A3F212231A8043
:102C700007F50873A3F212231B885A1C91B207F5BB
:102C80000872A2F212221180194607F50873A3F503
:102C9000047397F814225A5407F50873A3F2122309
:102CA0001B881A4607F110039818D7F818329B684A
:102CB00097F8142219461EF0AEFE97F814329AB215
:102CC00007F50873A3F212231B8813449AB207F581
:102CD0000873A3F212231A8007F50873A3F21223D4
:102CE0001B885A1C91B207F50872A2F212221180B9
:102CF000194607F50873A3F5047397F813225A547D
:102D000007F50873A3F212231B881A4607F1100374
:102D10009818D7F81832DB6897F8132219461EF076
:102D20007AFE97F813329AB207F50873A3F21223CA
:102D30001B8813449AB207F50873A3F212231A8072
:102D400000E000BFB7F81E320133A7F81E3207F5C6
:102D50000873A3F505731B88B7F81E229A42FFF487
:102D600076AE00E000BF07F50873A3F507731B6894
:102D7000DA7807F50873A3F212231B8807F1100114
:102D800000930B4600212120FFF7E8F900BF07F56B
:102D90000877BD4680BD80B588B002AF03460A46BD
:102DA000FB711346BB800023FB7307F11003DA1C91
:102DB00007F10F01BB88184600F0ACFE0346002B5C
:102DC00006D1FB79052219462220FFF72EFB12E0DF
:102DD000BB88DBB23B74BB881B0A9BB2DBB27B7443
:102DE000FB7BBB7407F11003FA79072100910021E6
:102DF0002420FFF7B3F91837BD4680BD80B584B0F5
:102E000000AF78607B689B88022B08D07B6858787D
:102E10007B68DB7801221946FFF707FB11E07B682E
:102E20009B791AB27B68DB791BB21B021BB213437E
:102E30001BB2FB817B68DB78FA8911461846FFF7E5
:102E4000AAFF1037BD4680BD80B584B000AF786062
:102E50007B689B88072B08D07B6858787B68DB7879
:102E600001221946FFF7E1FA29E07B689B791AB243
:102E70007B68DB791BB21B021BB213431BB2FB81C5
:102E80007B68197A7B6803F10902FB89184600F018
:102E90002DFF03467B737B7B002B08D07B68587823
:102EA0007B68DB787A7B1946FFF7BFFA07E07B681F
:102EB0005A787B68DB7819461046FFF79DFA103781
:102EC000BD4680BD80B582B000AF786000F0EAFDFD
:102ED0000346184601F004F90346002B08D07B682E
:102EE00058787B68DB7808221946FFF79EFA07E0DE
:102EF0007B685A787B68DB7819461046FFF77CFAC6
:102F00000837BD4680BD80B58CB000AF786007F152
:102F10000803184600F066FD7B689B88002B03D0F1
:102F20007B689B79002B0CD107F10803184601F050
:102F30006DF80346002B04D007F10803184600F093
:102F400051FD07F10803184600F0DCFF7B685A7852
:102F50007B68DB7819461046FFF74EFA00BF303722
:102F6000BD4680BD80B586B002AF03463960FB71B7
:102F70003B68002B19D03B681B783B733B685B7840
:102F80007B733B685B88DBB2BB733B685B881B0A67
:102F90009BB2DBB2FB7307F10C03FA7904210091B9
:102FA00000211220FFF7DAF800E000BF1037BD461D
:102FB00080BD000080B584B000AF78607B689B88DE
:102FC000042B08D07B6858787B68DB78012219468F
:102FD000FFF72BFA41E07B689B791846FFF798FAD8
:102FE000F860FB68002B08D17B6858787B68DB7839
:102FF00004221946FFF719FA2FE07B681B7A1AB2F0
:103000007B685B7A1BB21B021BB213431BB27B8132
:103010007B68DB79002B01D0012200E00022FB68F5
:103020005A70FB681B78062B03D1FB687A895A809B
:1030300005E07B89002B02D0FB687A895A80FB6807
:103040005B881A46064B1B681A44FB685A607B680B
:10305000DB78F9681846FFF785FF1037BD4680BD5D
:103060008C08002080B584B000AF78607B689B88B6
:10307000012B08D07B6858787B68DB7801221946E1
:10308000FFF7D3F917E07B689B791846FFF740FA02
:10309000F860FB68002B08D17B6858787B68DB7888
:1030A00004221946FFF7C1F905E07B68DB78F9686F
:1030B0001846FFF757FF1037BD4680BD80B588B072
:1030C00002AF0346FB800023FB82174B1B68BB60EB
:1030D000FB8A07F10C021344BA681A60FB8A0433B6
:1030E000FB82FB8A07F10C021344FA881A80FB8AE0
:1030F0000233FB82FB8A5A1CFA8219460B4B1A7860
:1031000001F118033B4403F80C2C07F10C02FB8A75
:1031100000931346002200214020FFF71FF800BF54
:103120001837BD4680BD00BF8C080020C80E0020A7
:1031300080B596B002AF0023A7F84E302F4B1B6826
:10314000BB602E4B1B687B604FF000033B60B7F801
:103150004E305A1CA7F84E2050333B44012203F84E
:10316000442CB7F84E3007F10C021344BA681A60C9
:10317000B7F84E300433A7F84E30B7F84E3007F1A9
:103180000C0213447A681A60B7F84E300433A7F87B
:103190004E30B7F84E305A1CA7F84E201946184B3F
:1031A0001A7801F150033B4403F8442C002387F8BC
:1031B0004D3010E0B7F84E3007F10C0213443A6876
:1031C0001A60B7F84E300433A7F84E3097F84D30F8
:1031D000013387F84D3097F84D300A2BEAD907F1C3
:1031E0000C02B7F84E300093134600220221132040
:1031F000FEF7B4FF00BF5037BD4680BD8C080020ED
:10320000C80E002080B592B002AF0023FB87284B88
:103210001B68BB600023FB800023BB804FF00003D2
:103220003B60FB8F5A1CFA8740333B44022203F871
:10323000342CFB8F07F10C021344BA681A60FB8F21
:103240000433FB87002387F83D300DE0FB8F07F147
:103250000C0213443A681A60FB8F0433FB8797F81B
:103260003D30013387F83D3097F83D30082BEDD9DC
:10327000FB8F07F10C021344FA881A80FB8F02338C
:10328000FB87FB8F07F10C021344BA881A80FB8F6F
:103290000233FB8707F10C02FB8F009313460022D9
:1032A00002211320FEF75AFF00BF4037BD4680BD04
:1032B0008C08002080B58EB002AF0023FB853A4B0E
:1032C0001B68BB604FF000037B6000237B80002302
:1032D00087F82D3000233B80FB8D5A1CFA85303354
:1032E0003B44032203F8242CFB8D07F10C0213440A
:1032F000BA681A60FB8D0433FB85FB8D07F10C0265
:1033000013447A681A60FB8D0433FB85FB8D07F14B
:103310000C0213447A681A60FB8D0433FB85FB8D25
:1033200007F10C0213447A681A60FB8D0433FB85A5
:10333000FB8D07F10C0213447A881A80FB8D02334F
:10334000FB85FB8D07F10C0213447A881A80FB8DF4
:103350000233FB85FB8D5A1CFA8530333B4497F8CA
:103360002D2003F8242CFB8D5A1CFA8530333B4466
:1033700097F82D2003F8242CFB8D07F10C02134441
:103380003A881A80FB8D0233FB8507F10C02FB8D16
:1033900000931346002202211320FEF7DFFE00BF38
:1033A0003037BD4680BD00BF8C08002080B590B08E
:1033B00002AF0023FB86404B1B683B613E4B1B6802
:1033C000FB6000237B813D4B5B893B813B4B9B89B1
:1033D000FB803A4BDB88BB80FB8E5A1CFA86383365
:1033E0003B44042203F8242CFB8E07F114021344FF
:1033F0003A691A60FB8E0433FB86FB8E07F11402D8
:103400001344FA681A60FB8E0433FB86FB8E07F1C7
:10341000140213447A891A80FB8E0233FB86FB8EDA
:1034200007F1140213447A891A80FB8E0233FB865B
:10343000FB8E07F1140213447A891A80FB8E023343
:10344000FB86FB8E07F1140213447A891A80FB8EE7
:103450000233FB86FB8E07F1140213443A891A806B
:10346000FB8E0233FB86FB8E07F114021344FA88AD
:103470001A80FB8E0233FB86FB8E07F11402134485
:103480007A891A80FB8E0233FB86FB8E07F11402C9
:103490001344BA881A80FB8E0233FB8607F11402AC
:1034A000FB8E00931346002202211320FEF756FEE6
:1034B00000BF3837BD4680BD8C080020B40E002008
:1034C00080B590B002AF0023FB862F4B1B683B6199
:1034D0000023FB6000237B814FF000037B60FB8EA9
:1034E0005A1CFA8638333B44052203F8242CFB8E01
:1034F00007F1140213443A691A60FB8E0433FB8609
:10350000FB8E07F114021344FA681A60FB8E043331
:10351000FB86FB8E07F114021344FA681A60FB8ED7
:103520000433FB86FB8E07F1140213447A891A8058
:10353000FB8E0233FB86FB8E07F1140213447A895B
:103540001A80FB8E0233FB86FB8E07F114021344B4
:103550007A681A60FB8E0433FB86FB8E07F1140237
:1035600013447A681A60FB8E0433FB8607F1140259
:10357000FB8E00931346002202211320FEF7EEFD7E
:1035800000BF3837BD4680BD8C08002080B588B0AC
:1035900002AF0023FB82214B1B687B60FB8A5A1C15
:1035A000FA8218333B44062203F8102CFB8A07F1F9
:1035B000080213447A681A60FB8A0433FB82FB8A90
:1035C0005A1CFA821946164B1A7801F118033B442B
:1035D00003F8102CFB8A07F108021344114AD28821
:1035E0001A80FB8A0233FB82FB8A07F1080213442C
:1035F0000422002118461EF087F9FB8A0433FB825F
:1036000007F10802FB8A00931346002202211320CF
:10361000FEF7A4FD00BF1837BD4680BD8C08002012
:10362000C80E0020B40E002080B582B000AF7860D4
:103630007B68002B26D07B681B78013B052B23D8A9
:1036400001A252F823F000BF613600086736000877
:103650006D36000873360008793600087F3600089A
:10366000FFF766FD11E0FFF7CDFD0EE0FFF722FE4C
:103670000BE0FFF79BFE08E0FFF722FF05E0FFF7F6
:1036800085FF02E000BF00E000BF0837BD4680BDF7
:1036900080B582B000AF78607B681B78012B08D0C2
:1036A0007B6858787B68DB7803221946FEF7BDFEFD
:1036B00081E07B685B78013B252B73D801A252F82F
:1036C00023F000BF5D370008A53700086537000804
:1036D000A5370008A5370008A5370008A53700085A
:1036E000A5370008A5370008A5370008A53700084A
:1036F000A5370008A5370008A5370008A53700083A
:10370000953700089D370008A5370008A537000841
:10371000A5370008A5370008A5370008A537000819
:10372000A5370008A5370008A5370008A537000809
:10373000A5370008A5370008A5370008A5370008F9
:103740006D370008A5370008753700087D37000879
:10375000A5370008853700088D3700087868FFF71F
:103760006BF828E07868FFF783F824E07868FFF7C3
:1037700037F920E07868FFF741FB1CE07868FFF735
:1037800063FB18E07868FFF79DFB14E07868FFF7AB
:10379000BAFB10E07868FFF70DFC0CE07868FFF7E3
:1037A00061FC08E07B6858787B68DB780422194666
:1037B000FEF73BFE00BF0837BD4680BD80B58CB02C
:1037C00000AF142200211B481EF09EF801F04AFDB4
:1037D00000F072F90346184600F004F93B1D184644
:1037E00000F014FC0346002B03D13B1D184600F0EB
:1037F00089FB0023FB620DE00F4AFB6ADB001344E8
:103800005B8819460C4AFB6ADB0013445960FB6A6B
:103810000133FB62FB6A052BEED90120FEF79CFE0B
:10382000064B01220649002001F042FB00BF303761
:10383000BD4680BDB40E0020900100208D250008FB
:103840008808002080B5ADF5067D00AF0FF086FC3E
:10385000C7F81002464B1B68D7F810229A4207D0CF
:10386000444AD7F810321360414AD7F81032136037
:10387000414B1B78DBB2002B18D0404B1B78DBB2DE
:10388000002B13D107F50673A3F505733C4A1846C0
:10389000114640F206231A461EF0BDF8364B0022B0
:1038A0001A703B1D1846FFF7F3FE5CE0354B1B78A2
:1038B000002B0CD0314B1B78DBB2002B07D1314BE6
:1038C00000221A7040F20110FFF7F8FB4BE02E4B7C
:1038D0001B78002B0CD0294B1B78DBB2002B07D1B7
:1038E000294B00221A704FF48170FFF7E7FB3AE092
:1038F000224B1B78DBB2002B34D10023C7F81432E3
:103900002BE0D7F81432DB00204A1344C7F80C32FE
:10391000D7F80C325B78002B1AD0D7F80C325B88C2
:10392000002B15D0D7F80C325A68124B1B689A42FC
:103930000ED8D7F80C325B881A460E4B1B681A4417
:10394000D7F80C325A60D7F80C02FFF76DFE0AE088
:10395000D7F814320133C7F81432D7F81432052BD4
:10396000CFD900E000BF07F50677BD4680BD00BF98
:10397000CC0E00208C080020890800208A08002036
:10398000980A0020C0010020C10100209001002001
:1039900080B485B000AF0346FB800023FB8115E0B7
:1039A000FA890F491346DB009B1A9B000B441B88C6
:1039B000FA889A4207D1FA891346DB009B1A9B00CA
:1039C000074A134406E0FB890133FB81FB89092B7D
:1039D000E6D9002318461437BD465DF8047B7047CE
:1039E0001C5E020880B483B000AF78607B68002B57
:1039F00022D07B68134A1A607B68134A5A607B683E
:103A00004FF000029A607B68104ADA607B684FF0E2
:103A10007E521A617B680E4A5A617B680D4A9A6130
:103A20007B684FF00002DA617B680B4A1A627B68A0
:103A3000002283F8242000E000BF0C37BD465DF86B
:103A4000047B70470000A04000000C429A99993F07
:103A5000CDCC4C3FCDCC4C3D0000344280B400AFC7
:103A60000A231846BD465DF8047B704780B582B0D6
:103A700000AF0346FB80FFF7F1FF03461A46FB88C1
:103A8000934201D3002306E0FA881346DB009B1A19
:103A90009B00034A134418460837BD4680BD00BF4B
:103AA0001C5E020880B400AF024B1846BD465DF8AC
:103AB000047B7047D00E002080B400AF024B184644
:103AC000BD465DF8047B7047D00E002080B483B003
:103AD00000AF87ED010A38607A683B681A6000BF62
:103AE0000C37BD465DF8047B704780B485B000AFED
:103AF00078604FF00003FB607B681B68FB60FB682D
:103B000007EE903AB0EE670A1437BD465DF8047BC5
:103B10007047000080B586B000AF0346B9607A6098
:103B2000FB81FB891846FFF733FF78617B69002B27
:103B300005D0BB68002B02D07B68002B01D100238D
:103B4000CEE07B699A78BB681A70042200217868FD
:103B50001DF0DAFEFB89A3F58053302B00F2BD8007
:103B600001A252F823F000BF2D3C00083F3C0008A2
:103B7000513C0008633C0008753C0008DB3C000831
:103B8000DB3C0008DB3C0008DB3C0008DB3C0008B9
:103B9000DB3C0008DB3C0008DB3C0008DB3C0008A9
:103BA000DB3C0008DB3C0008873C0008993C00082F
:103BB000AB3C0008DB3C0008DB3C0008DB3C0008B9
:103BC000DB3C0008DB3C0008DB3C0008DB3C000879
:103BD000DB3C0008DB3C0008DB3C0008DB3C000869
:103BE000DB3C0008DB3C0008BD3C0008DB3C000877
:103BF000DB3C0008DB3C0008DB3C0008DB3C000849
:103C0000DB3C0008DB3C0008DB3C0008DB3C000838
:103C1000DB3C0008DB3C0008DB3C0008DB3C000828
:103C2000DB3C0008DB3C0008CF3C00082E4BD3ED0A
:103C3000007A7868B0EE670AFFF748FF4FE02A4B3A
:103C4000D3ED017A7868B0EE670AFFF73FFF46E0F0
:103C5000254BD3ED027A7868B0EE670AFFF736FF9E
:103C60003DE0214BD3ED037A7868B0EE670AFFF7A9
:103C70002DFF34E01C4BD3ED047A7868B0EE670A70
:103C8000FFF724FF2BE0184BD3ED057A7868B0EEF0
:103C9000670AFFF71BFF22E0134BD3ED067A786823
:103CA000B0EE670AFFF712FF19E00F4BD3ED077A6A
:103CB0007868B0EE670AFFF709FF10E00A4BD3ED12
:103CC000087A7868B0EE670AFFF700FF07E0064B56
:103CD00093F824207B681A7001E0002300E00123A0
:103CE00018461837BD4680BDD00E002080B584B080
:103CF00000AF03463A60FB800B467B71FB88184699
:103D0000FFF746FEF860FB68002B02D03B68002BF3
:103D100001D10523F0E0FB689B787A799A4201D0C3
:103D20000723E9E07B79012B05D13B681B78012B48
:103D30001CD90723E0E03868FFF7D7FE87ED020AB9
:103D4000FB68D3ED047A97ED027AB4EEE77AF1EEF0
:103D500010FA09D4FB68D3ED057A97ED027AB4EE38
:103D6000E77AF1EE10FA01DD0723C5E0FB88A3F541
:103D70008053302B00F2BD8001A252F823F000BF27
:103D8000453E0008573E0008693E00087B3E00089B
:103D90008D3E0008F33E0008F33E0008F33E0008A5
:103DA000F33E0008F33E0008F33E0008F33E00082F
:103DB000F33E0008F33E0008F33E0008F33E00081F
:103DC0009F3E0008B13E0008C33E0008F33E0008D5
:103DD000F33E0008F33E0008F33E0008F33E0008FF
:103DE000F33E0008F33E0008F33E0008F33E0008EF
:103DF000F33E0008F33E0008F33E0008F33E0008DF
:103E0000D53E0008F33E0008F33E0008F33E0008EC
:103E1000F33E0008F33E0008F33E0008F33E0008BE
:103E2000F33E0008F33E0008F33E0008F33E0008AE
:103E3000F33E0008F33E0008F33E0008F33E00089E
:103E4000E73E00083868FFF750FEF0EE407A2C4B52
:103E5000C3ED007A4FE03868FFF747FEF0EE407A96
:103E6000274BC3ED017A46E03868FFF73EFEF0EEDF
:103E7000407A234BC3ED027A3DE03868FFF735FE08
:103E8000F0EE407A1E4BC3ED037A34E03868FFF75A
:103E90002CFEF0EE407A1A4BC3ED047A2BE0386822
:103EA000FFF723FEF0EE407A154BC3ED057A22E0D2
:103EB0003868FFF71AFEF0EE407A114BC3ED067A30
:103EC00019E03868FFF711FEF0EE407A0C4BC3EDB5
:103ED000077A10E03868FFF708FEF0EE407A084BEA
:103EE000C3ED087A07E03B681A78054B83F8242075
:103EF00001E0052300E0002318461037BD4680BDD1
:103F0000D00E0020B0B483B000AF78607B68002B87
:103F10000CD0094A7B6814461D460FCD0FC40FCD47
:103F20000FC495E8030084E8030000E000BF0C37ED
:103F3000BD46B0BC704700BFD00E002080B487B033
:103F400000AF786039604FF0FF337B6100233B6145
:103F500021E07A683B6913441B781A467B69534019
:103F60007B610023FB7310E07B6903F00103002BEE
:103F700005D07B695A080E4B53407B6102E07B6998
:103F80005B087B61FB7B0133FB73FB7B072BEBD96E
:103F90003B6901333B613A693B689A42D9D37B69FB
:103FA000DB4318461C37BD465DF8047B704700BFF5
:103FB0002083B8ED80B582B000AF124B1B78002B88
:103FC00001D000231AE000233B7000237B70002304
:103FD000BB703B46194600200EF046FC78607B68BB
:103FE000002B04D0084B03221A707B6806E0054BB7
:103FF00001221A70044B01221A7000231846083758
:10400000BD4680BDF90E0020F80E0020B0B592B07C
:1040100000AF78607B68002B02D16FF0010357E09E
:10402000FFF7C8FF78647B6C002B07D07868FFF738
:10403000D9FC294B03221A707B6C49E007F10C0371
:104040003422002118461DF05FFC07F10C013423D7
:104050004FF47F0200200EF0BBFC78647B6C002BD9
:1040600007D07868FFF7BEFC1B4B02221A707B6CEE
:104070002EE007F10C030C3328211846FFF75EFFF2
:104080003864FB68154A934209D13B8A012B06D15B
:104090007B8A282B03D17B693A6C9A4208D07868D6
:1040A000FFF7A0FC0C4B02221A706FF004030FE024
:1040B0007B681D4607F118040FCC0FC50FCC0FC548
:1040C00094E8030085E80300034B01221A700023E3
:1040D00018464837BD46B0BDF80E002043504C4846
:1040E000B0B590B000AF78607B68002B02D16FF064
:1040F000010349E0FFF75EFFF863FB6B002B04D080
:10410000234B03221A70FB6B3EE0224BBB60012362
:10411000BB812823FB817B6807F114041D460FCD6A
:104120000FC40FCD0FC495E8030084E8030007F126
:1041300008030C3328211846FFF700FF03463B61B4
:1041400001224FF47F0100200EF018FDF863FB6B95
:10415000002B04D00E4B03221A70FB6B14E007F106
:10416000080134234FF47F0200200EF06BFCF8634B
:10417000FB6B002B04D0064B03221A70FB6B03E091
:10418000034B01221A70002318464037BD46B0BDCC
:10419000F80E002043504C4880B400AF034B1B780E
:1041A0001846BD465DF8047B704700BFF80E00203E
:1041B00080B483B000AF7860064BD3F88020054907
:1041C0007B681343C1F8803000BF0C37BD465DF8F3
:1041D000047B70470008005880B483B000AF78605B
:1041E000054B1A6804497B6813430B6000BF0C370A
:1041F000BD465DF8047B70470008005880B483B06A
:1042000000AF0D4B9B6A9BB27B600B4B9B6A9BB2D2
:104210003B6005E03B687B60074B9B6A9BB23B6061
:104220007A683B689A42F5D13B6818460C37BD4620
:104230005DF8047B704700BF0028004080B485B063
:1042400000AF03460A46FB711346BB71BA791D499C
:1042500013465B001344DB000B4415331B78FB73E0
:10426000FB7B062B09D0FA7B164913465B001344EF
:10427000DB000B441433FA791A70FA7911491346AA
:104280005B001344DB000B441533FA7B1A70FA7998
:104290000C4913465B001344DB000B441433BA791A
:1042A0001A70BA79074913465B001344DB000B44CC
:1042B0001533FA791A7000BF1437BD465DF8047BD8
:1042C000704700BFFC0E002080B485B000AF0346ED
:1042D0000A46FB711346BB71294B1B78DBB2BA79D6
:1042E0009A4232D0BA79274913465B001344DB0067
:1042F0000B4414331B78FB73FA7B224913465B0093
:104300001344DB000B441533FA791A70FA791D490E
:1043100013465B001344DB000B441533BA791A7063
:10432000FA79184913465B001344DB000B4414333D
:10433000FA7B1A70BA79134913465B001344DB0009
:104340000B441433FA791A7014E0FA790D491346C4
:104350005B001344DB000B441533BA791A70BA7949
:10436000084913465B001344DB000B441433FA790D
:104370001A7000BF1437BD465DF8047B704700BF5C
:104380008C0F0020FC0E002080B584B000AF0346E7
:10439000FB714E4B1B78DBB2062B18D14B4B1B78B5
:1043A000DAB24B4B1A70494AFB791370FA794949D2
:1043B00013465B001344DB000B44153306221A70CE
:1043C000454B4FF0FF321A600023FB8178E000F08C
:1043D00009F90346FB81FA793E4913465B00134411
:1043E000DB000B4408331968FB89FA791944394812
:1043F00013465B001344DB00034408331960FA7969
:10440000344913465B001344DB000B4408331B683C
:10441000BB602E4B1B78DBB219462E4A0B465B0065
:104420000B44DB00134408331B68BA689A4237D345
:10443000264B1B787B737A7B264913465B0013441B
:10444000DB000B4415331B783B7313E07A7B214967
:1044500013465B001344DB000B4415331B787B735E
:104460007A7B1C4913465B001344DB000B44153375
:104470001B783B733B7B062B0BD03A7B15491346CD
:104480005B001344DB000B4408331B68BA689A4294
:10449000DCD27A7BFB7911461846FFF7CFFE0FE09E
:1044A0000A4B1B78DAB2FB7911461846FFF70CFF6E
:1044B000064B1B78DAB2064B1A70044AFB7913706C
:1044C000FB8918461037BD4680BD00BF8C0F002009
:1044D0008D0F0020FC0E0020900F002080B485B0CE
:1044E00000AF03460A46FB711346BB71394B1B787C
:1044F000DBB2FA799A4211D1364B1B78DAB2364BDD
:104500001A70FA79354913465B001344DB000B44FB
:1045100015331B78DAB22F4B1A703EE0FA792F4927
:1045200013465B001344DB000B4414331B78FB730E
:10453000FA792A4913465B001344DB000B44153318
:104540001B78BB73F979FA7B24480B465B000B445C
:10455000DB00034415331B78D8B2204913465B00B7
:104560001344DB000B44153302461A70BB7B062B49
:1045700013D0F979BA7B19480B465B000B44DB007A
:10458000034414331B78D8B2144913465B00134418
:10459000DB000B44143302461A70FA790F491346B4
:1045A0005B001344DB000B440C3301221A70094BEF
:1045B0001B78DBB2062B07D1BB79002B04D1084B4B
:1045C0004FF0FF321A6000BF00BF1437BD465DF8E0
:1045D000047B70478C0F00208D0F0020FC0E002004
:1045E000900F002080B582B000AF1A4B1B68B3F16A
:1045F000FF3F26D0FFF702FE7860164B1B687A68F3
:104600009A4205D8134B1A687B68D31A7B600AE07C
:10461000114B1B881A467B68D31A3B600D4B1B68F5
:104620003A6813447B600D4B1B781A467B6802FB8B
:1046300003F37B600A4B1B781A467B68D3407B6090
:1046400001E000237B607B689BB218460837BD46BB
:1046500080BD00BF900F0020980F0020960F002013
:10466000950F002080B582B000AF0346FB80FB8829
:10467000002B08D1FFF7C2FD0346214A1360032037
:104680000EF019FF39E0FB88012B03D81D4B1B7876
:10469000012B02D0FB88013BFB8000BF1A4B1B683B
:1046A000DB6803F00403002BF8D0174B1B68DB68B2
:1046B000DAB2154B1B6862F49062DA60134B4FF468
:1046C0000022DA6003200EF004FF114B5B691B0C23
:1046D0001B04FA880E4913434B61FFF78FFD034615
:1046E000074A1360084B1B689A68074B1B6842F423
:1046F00080629A60AFF3008000BF0837BD4680BD7E
:10470000900F0020950F0020E00F002000080058B7
:104710000028004080B584B000AF454B9B6803F48F
:104720008063B3F5806F07D100BF424B1B68DB6825
:1047300003F00403002BF8D13E4B1B689A683D4BF5
:104740001B6822F480629A603B4B1B78FB73FA7BF8
:104750003A4913465B001344DB000B4408331B68E3
:10476000BB60FFF73FFF0346FB80FB88BA689A42B5
:1047700005D20023BB81324B01221A704DE0FB8829
:10478000304A128892B213441A46BB68934206D943
:104790002C4B1B88BB812A4B00221A703DE0BB6862
:1047A0009AB2FB88D31ABB81254B01221A7034E0E0
:1047B000FA7B224913465B001344DB000B440833A9
:1047C0001A68FB889A420AD2FA7B1C4913465B009E
:1047D0001344DB000B44083300221A6013E0FA7B19
:1047E000164913465B001344DB000B440833196879
:1047F000FB88FA7BC91A114813465B001344DB009F
:10480000034408331960FA7B0C4913465B001344D8
:10481000DB000B4415331B78FB73FB7B062BC7D1E6
:10482000BB891846FFF71EFF00BF1037BD4680BD8D
:1048300000280040E00F00208C0F0020FC0E00201C
:10484000940F00209A0F002080B58AB000AFEFF3DC
:1048500010837B617B697B6272B600BF594B1B681A
:10486000CA225A62574B1B6853225A62554B1B6827
:104870009A68544B1B6822F480629A60524B1B78F2
:1048800087F8233097F82320504913465B001344E0
:10489000DB000B440C331B78DBB2022B6ED197F894
:1048A00023204A4913465B001344DB000B441B687A
:1048B000FB6197F82320454913465B001344DB0056
:1048C0000B4410331B68BB61414B1B78DBB2002BE0
:1048D0004CD097F823203D4913465B001344DB007E
:1048E0000B440D331B78DBB2012B24D197F8233016
:1048F00001211846FFF7F2FD7B6A3B613B6983F3B8
:10490000108800BF97F82320304913465B001344FA
:10491000DB000B4404331A6897F82330114618461D
:1049200000F032FA274B1B68CA225A62254B1B68DB
:1049300053225A6212E07B6AFB60FB6883F31088A3
:1049400000BF97F82330184600F09AF91D4B1B68FA
:10495000CA225A621B4B1B6853225A6297F82330B3
:10496000FA691946B86900F095FA22E0FFF7D2FE1D
:104970007B6ABB60BB6883F310881AE000BF114BF1
:104980001B68DB6803F00403002BF8D00D4B1B6899
:10499000DB68DAB20B4B1B6862F49062DA600D4B95
:1049A0004FF40022DA607B6A7B607B6883F31088B7
:1049B00000BF044B1B68FF225A6200BF2837BD4668
:1049C00080BD00BFE00F00208C0F0020FC0E0020F7
:1049D000940F00200008005880B588B000AF03464F
:1049E0003960FB715E4B1B68CA225A625C4B1B68C4
:1049F00053225A625B4B9B685A4A43F020039360F0
:104A0000584B9B68DBB203F00703DBB2C3F104032E
:104A1000DAB2554B1A70534B1B6903F4FE034FF483
:104A2000FE023A613A6992FAA2F2FA60FA687A6191
:104A30007A69002A01D1202203E07A69B2FA82F26F
:104A4000D2B2D340DBB20133DAB2484B1A70454BD5
:104A50001B699BB2C3F30E039BB201339AB2444B62
:104A60001A80434B1B88013B404A127802FB03F338
:104A7000A3F5A0733C4A1278D340BB61BB694FF6E3
:104A8000FE72934204D93B4B4FF6FF721A8003E04B
:104A9000BB699AB2374B1A804FF40020FFF79CFB9A
:104AA0004FF40020FFF784FBFB79002B3DD1324B04
:104AB00001221A70314B4FF0FF321A600023FB774E
:104AC0000CE0FA7F2E4913465B001344DB000B44D5
:104AD0000C3300221A70FB7F0133FB77FB7F052B21
:104AE000EFD9284B06221A701D4B1B689A681C4B85
:104AF0001B6822F480629A60194B1B68DB68DAB28B
:104B0000174B1B6862F49062DA601F4B4FF400226F
:104B1000DA6003200EF0DDFC114B1B689A68104B25
:104B20001B6842F480429A6009E00D4B1B68DB6809
:104B300003F48063002B02D003200EF0BCFC084B72
:104B40001B68FF225A620022032103200EF071FC31
:104B500003200EF088FC00BF2037BD4680BD00BF9B
:104B6000E00F002000280040950F0020960F002045
:104B7000980F00209A0F0020940F0020900F002023
:104B8000FC0E00208C0F00200008005880B48BB071
:104B900000AFF860B9603B601346FB71002387F8F3
:104BA0002630EFF31083FB61FB693B6272B600BFF6
:104BB00004E097F82630013387F8263097F826303E
:104BC000052B0CD897F826202C4913465B0013447C
:104BD000DB000B440C331B78DBB2002BE9D197F8D8
:104BE0002630062B38D097F82620244913465B0040
:104BF0001344DB000B440C3301221A703B6ABB6187
:104C0000BB6983F3108800BF97F826201B49134621
:104C10005B001344DB000B441033FA681A6097F80A
:104C20002620164913465B001344DB000B440D336A
:104C3000FA791A7097F82620104913465B0013443E
:104C4000DB000B443A681A60BB6897F826201A709C
:104C5000002387F8273008E03B6A7B617B6983F398
:104C6000108800BF012387F8273097F827301846AF
:104C70002C37BD465DF8047B704700BFFC0E00205A
:104C800080B586B000AF0346FB71EFF31083FB6085
:104C9000FB687B6172B600BF03200EF0F2FB344B61
:104CA0001B68CA225A62324B1B6853225A62FA7935
:104CB000304913465B001344DB000B440C331B7874
:104CC000DBB2022B42D1FB7900211846FFF706FC2C
:104CD000294B1B78FB74FB7C062B2FD1274B9B6841
:104CE00003F48063B3F5806F07D100BF204B1B68CE
:104CF000DB6803F00403002BF8D11D4B1B689A6896
:104D00001B4B1B6822F480629A6000BF184B1B6823
:104D1000DB6803F00403002BF8D0154B1B68DB683D
:104D2000DAB2134B1B6862F49062DA60144B4FF4F2
:104D30000022DA6003200EF0CCFB07E0114B1B7859
:104D4000DBB2FA7C9A4201D0FFF7E4FC084B1B6807
:104D5000FF225A6203200EF086FB7B69BB60BB68B2
:104D600083F3108800BF00BF1837BD4680BD00BF69
:104D7000E00F0020FC0E00208C0F002000280040D7
:104D8000000800588D0F002080B586B000AF0346A4
:104D90003960FB71FA793B4913465B001344DB0031
:104DA0000B440C331B78DBB2022B03D1FB79184682
:104DB000FFF766FFEFF31083FB60FB687B6172B661
:104DC00000BF03200EF05DFB2F4B1B68CA225A6206
:104DD0002D4B1B6853225A62FA792A4913465B000D
:104DE0001344DB000B440C3302221A70FA79254974
:104DF00013465B001344DB000B4408333A681A6027
:104E0000FA79204913465B001344DB000B4404335A
:104E10003A681A60FB791846FFF7B6FA03467B82B8
:104E20001A4B1B787B741A4B1B78DBB27A7C9A4244
:104E300002D0FFF76FFC13E0FA79124913465B00CA
:104E40001344DB000B44083319687B8AFA79C91ACA
:104E50000C4813465B001344DB000344083319601D
:104E6000094B1B68FF225A6203200EF0FCFA7B6993
:104E7000BB60BB6883F3108800BF00BF1837BD4616
:104E800080BD00BFFC0E0020E00F00208C0F002032
:104E90008D0F002080B584B000AFF8600B467A60BB
:104EA000FB727B68984700BF1037BD4680BD00008D
:104EB00080B584B000AFB9607B600346FB731346D6
:104EC000BB81FB7B002B0CD1084A7B681360084B2D
:104ED000084A1A60BB891A46B968054814F040FDB3
:104EE00000E000BF00BF1037BD4680BD9C0F002012
:104EF000041000200038014080B586B000AFB960D2
:104F00007B600346FB731346BB810023FB750023C4
:104F1000BB75FB7B002B0ED1174A7B681360174BC8
:104F2000174A1A60BB891A46B968144814F064FD20
:104F30000346FB7500E000BFFB7D032B16D801A2E2
:104F400052F823F0554F00085B4F0008614F0008EE
:104F5000674F00080023BB7509E00123BB7506E01D
:104F60000223BB7503E00323BB7500E000BFBB7DDC
:104F700018461837BD4680BDA00F00200410002041
:104F80000038014080B582B000AF78607B681B6854
:104F90001A46094B9A4207D1084B1B68002B05D0D3
:104FA000064B1B68984701E000BF00E000BF00BF50
:104FB0000837BD4680BD00BF003801409C0F00206F
:104FC00080B582B000AF78607B681B681A46094BD9
:104FD0009A4207D1084B1B68002B05D0064B1B6873
:104FE000984701E000BF00E000BF00BF0837BD46A2
:104FF00080BD00BF00380140A00F002080B483B006
:1050000000AF78604FF0B043D3F8903023F018022F
:105010004FF0B0417B681343C1F8903000BF0C37AC
:10502000BD465DF8047B704780B485B000AF786002
:105030004FF0B0439A6C4FF0B0417B6813438B64E0
:105040004FF0B0439A6C7B681340FB60FB6800BF75
:105050001437BD465DF8047B704780B485B000AF5F
:1050600078604FF0B043DA6C4FF0B0417B68134387
:10507000CB644FF0B043DA6C7B681340FB60FB6895
:1050800000BF1437BD465DF8047B704780B500AFA4
:105090000DF0F6FFFCF75CF900F012F800F07CF878
:1050A00000F09AF800F03EF900F02AF900F0B0F8AC
:1050B00000F0A6F8FCF75AF9FCF730FBFCE700001B
:1050C00080B59AB000AF07F12003482200211846AE
:1050D0001CF01AFC3B1D00221A605A609A60DA60CC
:1050E0001A615A619A6110F0A5F91020FFF786FF46
:1050F000284B1B6823F4C063264A43F400731360F3
:10510000244B1B6803F4C0633B603B6807233B628E
:105110004FF480337B620123BB624FF48073FB62E8
:1051200040233B630223FB6403233B6570237B65C1
:105130002023BB654FF40033FB654FF000537B66C3
:105140004FF000733B6607F12003184611F04CF94D
:105150000346002B01D000F0DDFA6F237B600323B0
:10516000BB600023FB6000233B6100237B61802345
:10517000BB610023FB613B1D0321184611F0A8FC15
:105180000346002B01D000F0C5FA00BF6837BD46CA
:1051900080BD00BF0004005880B594B000AF3B460E
:1051A0005022002118461CF0AFFB4FF440533B60E7
:1051B0004FF480437B640023BB641023FB643B46B5
:1051C000184612F0B0FA0346002B01D000F0A2FA04
:1051D00000BF5037BD4680BD80B500AF064B074AC3
:1051E0001A60054810F0A0F80346002B01D000F02B
:1051F00091FA00BF80BD00BFA40F0020000C005832
:1052000080B400AF00BFBD465DF8047B704700006E
:1052100080B500AF114B124A1A60104B00225A6041
:105220000E4B0F229A600D4B47F6FF72DA600B4B64
:1052300000221A61094B00229A61084B0022DA61B0
:10524000064B00225A61054813F0B8FA0346002BBA
:1052500001D000F05FFA00BF80BD00BFE00F00206A
:105260000028004080B500AF234B244A1A60224B2F
:105270004FF4E1325A60204B00229A601E4B00220C
:10528000DA601D4B00221A611B4B0C225A611A4B2B
:1052900000229A61184B4FF40042DA61164B00224B
:1052A0001A62154B00225A62134B00229A6212486E
:1052B00014F006FB0346002B01D000F02BFA00216E
:1052C0000D4816F06AFB0346002B01D000F022FACD
:1052D0000021094816F09FFB0346002B01D000F087
:1052E00019FA054816F020FB0346002B01D000F008
:1052F00011FA00BF80BD00BF04100020003801403B
:1053000080B500AF0420FFF78FFE0220FFF78CFE70
:1053100000220F213A200EF08CF83A200EF0A3F86C
:1053200000BF80BD80B586B000AF3B1D00221A6073
:105330005A609A60DA601A610120FFF78EFE04203D
:10534000FFF78BFE0220FFF788FE0820FFF785FE9F
:105350001020FFF782FE8020FFF77FFE002203214E
:10536000BD480EF073FE00224FF44071BB480EF0B2
:105370006DFE00224FF48071B9480EF067FE0022E6
:105380000421B8480EF062FE25237B600323BB6036
:105390000023FB603B1D19464FF090400EF008FCC7
:1053A0003A237B600323BB600023FB603B1D19464F
:1053B000AA480EF0FDFB40F604437B600023BB606F
:1053C0000023FB603B1D1946A4480EF0F1FB4FF48F
:1053D00000737B600223BB600023FB6000233B6102
:1053E0000A237B613B1D19469F480EF0E1FB012318
:1053F0007B600223BB600023FB6000233B6108232A
:105400007B613B1D194695480EF0D2FB4FF480732B
:105410007B601223BB600023FB6000233B610423FD
:105420007B613B1D194690480EF0C2FB4FF481533F
:105430007B600223BB600023FB6000233B610823E9
:105440007B613B1D194688480EF0B2FB4FF40043C8
:105450007B600223BB600023FB6000233B610123D0
:105460007B613B1D19464FF090400EF0A1FB4FF4BD
:1054700080637B601223BB600023FB6000233B61E1
:1054800004237B613B1D19464FF090400EF090FBCA
:105490004FF4C0537B600223BB600023FB600023FA
:1054A0003B610A237B613B1D19464FF090400EF093
:1054B0007FFB03237B600223BB600023FB60002390
:1054C0003B6105237B613B1D194665480EF070FB6F
:1054D000C0237B600223BB600023FB6000233B6191
:1054E00009237B613B1D19465C480EF061FB4FF4BC
:1054F00040437B600223BB600023FB6000233B61D1
:1055000005237B613B1D194657480EF051FB1223C2
:105510007B600023BB600023FB603B1D19465148A4
:105520000EF046FB4FF480637B600223BB600023D8
:10553000FB6000233B6101237B613B1D19464A4808
:105540000EF036FB04237B600023BB600023FB606E
:105550003B1D194644480EF02BFB4FF440737B6013
:105560000223BB600023FB6000233B6103237B61BC
:105570003B1D19464FF090400EF01AFB40237B6014
:105580000223BB600023FB6000233B6108237B6197
:105590003B1D19464FF090400EF00AFB08237B603C
:1055A0000223BB600023FB6000233B610A237B6175
:1055B0003B1D19464FF090400EF0FAFA03237B6032
:1055C0000123BB600023FB6000233B613B1D1946A8
:1055D00021480EF0EDFA4FF440437B600223BB609C
:1055E0000023FB6000233B6101237B613B1D1946C7
:1055F0001B480EF0DDFA43F210037B600023BB6012
:105600000023FB603B1D194615480EF0D1FA4FF4FC
:1056100001737B604FF48813BB600023FB603B1D6C
:1056200019460F480EF0C4FA4FF440737B60012313
:10563000BB600023FB6000233B613B1D194607480C
:105640000EF0B6FA68237B600223BB600023FB6088
:1056500000233B610A2309E0001C004800080048C1
:10566000000C004800100048000400487B613B1D0E
:10567000194626480EF09CFA08237B604FF48813E5
:10568000BB600023FB603B1D194621480EF090FAD9
:105690004FF480737B600123BB600023FB60002319
:1056A0003B613B1D194619480EF082FA4FF44063E6
:1056B0007B600223BB600023FB6000233B61092366
:1056C0007B613B1D194611480EF072FA04237B6082
:1056D0000123BB600023FB6000233B613B1D194697
:1056E0000B480EF065FA01237B600223BB600023A8
:1056F000FB6000233B610E237B613B1D1946044880
:105700000EF056FA00BF1837BD4680BD000C0048A9
:105710000010004880B400AF72B600BF00BFFDE7C4
:1057200080B400AF4FF0B043D3F890304FF0B042A8
:1057300043F40043C2F8903000BFBD465DF8047BDF
:10574000704780B485B000AF78604FF0B043DA6C3A
:105750004FF0B0417B681343CB644FF0B043DA6C39
:105760007B681340FB60FB6800BF1437BD465DF8E3
:10577000047B704780B485B000AF78604FF0B043D1
:105780001A6D4FF0B0417B6813430B654FF0B04387
:105790001A6D7B681340FB60FB6800BF1437BD4681
:1057A0005DF8047B704780B485B000AF78604FF03F
:1057B000B0439A6D4FF0B0417B6813438B654FF057
:1057C000B0439A6D7B681340FB60FB6800BF1437E1
:1057D000BD465DF8047B704780B485B000AF78604B
:1057E0004FF0B0431A6E4FF0B0417B6813430B6625
:1057F0004FF0B0431A6E7B681340FB60FB6800BF3C
:105800001437BD465DF8047B704780B500AF4FF498
:105810000020FFF7AFFF002200212E200DF009FE2F
:105820002E200DF020FE00BF80BD000080B582B0AC
:1058300000AF78607B681B68054A934203D14FF440
:105840008010FFF797FF00BF0837BD4680BD00BF3F
:10585000000C005880B596B000AF786007F10803DF
:105860005022002118461CF04FF87B681B680E4A36
:10587000934215D14FF40063BB604FF48073BB6457
:1058800007F10803184611F04EFF0346002B01D024
:10589000FFF740FFFFF744FF4FF48060FFF783FFFF
:1058A00000BF5837BD4680BD0028004080B59CB081
:1058B00000AF786007F15C0300221A605A609A60BA
:1058C000DA601A6107F10C035022002118461CF01F
:1058D0001BF87B681B682E4A934255D10123FB605D
:1058E00000237B6207F10C03184611F01CFF0346EE
:1058F000002B01D0FFF70EFF4FF48040FFF76CFF45
:105900000220FFF71EFFC023FB6502233B66012335
:105910007B660323BB660723FB6607F15C0319461E
:105920001C480EF045F91C4B1C4A1A601A4B0F22FA
:105930005A60194B10229A60174B0022DA60164BFE
:1059400080221A61144B00225A61134B00229A6183
:10595000114B0022DA61104B00221A620E480DF042
:10596000C7FD0346002B01D0FFF7D4FE7B680A4A2F
:10597000DA67094A7B6893620022002124200DF037
:1059800058FD24200DF06FFD00BF7037BD4680BD6F
:1059900000380140000400489810002044040240F0
:1059A00080B400AF00BFFDE780B400AF00BFFDE7EB
:1059B00080B400AF00BFFDE780B400AF00BFFDE7DB
:1059C00080B400AF00BFFDE780B400AF00BFBD46AC
:1059D0005DF8047B704780B400AF00BFBD465DF842
:1059E000047B704780B400AF00BFBD465DF8047B08
:1059F000704780B500AF0DF09DFB00BF80BD00007B
:105A000080B500AF024814F077F800BF80BD00BF3A
:105A10000410002080B500AF0EF048FB00BF80BD31
:105A200080B500AF02480DF044FF00BF80BD00BF4D
:105A30009810002080B500AF06F04CFD00BF80BD7F
:105A400080B500AF06F07CFD00BF80BD80B500AF23
:105A50004FF480500EF012FB4FF400500EF00EFB8E
:105A600000BF80BD80B500AF0AF028FF00BF80BD39
:105A700080B500AFFEF7E8FE00BF80BD80B400AF88
:105A800001231846BD465DF8047B704780B582B09F
:105A900000AF786039601BF089FF034616221A6058
:105AA0004FF0FF3318460837BD4680BD80B582B041
:105AB00000AF78604FF0FF317868FFF7E7FF00BF75
:105AC000FDE780B586B000AFF860B9607A6000236A
:105AD0007B610AE0AFF300800146BB685A1CBA60E4
