:020000040800F2
:10000000000003205D0F0008FD33000805340008E0
:100010000D340008153400081D34000800000000ED
:10002000000000000000000000000000253400086F
:100030003334000800000000413400084F34000849
:10004000B10F0008B10F0008B10F0008CD3400084F
:10005000B10F0008B10F0008B10F0008B10F000880
:10006000B10F0008B10F0008B10F0008B10F000870
:10007000B10F0008B10F0008B10F0008B10F000860
:10008000B10F0008B10F0008B10F0008B10F000850
:10009000B10F0008B10F0008B10F0008B10F000840
:1000A000B10F0008B10F0008C1340008B10F0008FB
:1000B000B10F0008B10F0008B10F0008B10F000820
:1000C000B10F0008B10F0008B10F0008B10F000810
:1000D0005D340008B10F0008B10F0008B10F00082F
:1000E000A9340008B10F0008B10F0008B10F0008D3
:1000F000913400089D34000871340008B10F0008E5
:10010000B10F0008B10F0008B10F0008B10F0008CF
:10011000B10F0008B10F0008B10F0008B10F0008BF
:10012000B10F0008B10F00087D340008B10F0008BE
:0C013000B10F0008B10F0008B10F00086B
:1001400010B5054C237833B9044B13B10448AFF311
:1001500000800123237010BDC007002000000000B4
:1001600064EF010808B5034B1BB103490348AFF323
:10017000008008BD00000000C407002064EF0108F3
:1001800010F8012B11F8013B012A28BF9A42F7D041
:10019000D01A7047000000000000000000000000BE
:1001A00001F0FF01102A2BDB10F0070F08D010F828
:1001B000013B013A8B422DD010F0070F42B3F6D12C
:1001C000F0B441EA012141EA014122F007047FF045
:1001D00000070023F0E80256083C85EA010586EA9C
:1001E000010685FA47F5A3FA87F586FA47F6A5FAD8
:1001F00087F68EB9EED1F0BC01F0FF0102F00702E4
:1002000032B110F8013B013A83EA010313B1F8D18E
:100210000020704701387047002D06BF354603386F
:10022000073815F0010F07D1013015F4807F02BFA8
:10023000013015F4C03F0130F0BC0138704700BFF9
:10024000034613F8012B002AFBD1181A0138704716
:1002500081F0004102E000BF83F0004330B54FEA77
:1002600041044FEA430594EA050F08BF90EA020FE4
:100270001FBF54EA000C55EA020C7FEA645C7FEA77
:10028000655C00F0E2804FEA5454D4EB5555B8BF9A
:100290006D420CDD2C4480EA020281EA030382EA0B
:1002A000000083EA010180EA020281EA0303362D9D
:1002B00088BF30BD11F0004F4FEA01314FF4801C70
:1002C0004CEA113102D0404261EB410113F0004F82
:1002D0004FEA03334CEA133302D0524263EB430339
:1002E00094EA050F00F0A780A4F10104D5F1200ED7
:1002F0000DDB02FA0EFC22FA05F2801841F1000132
:1003000003FA0EF2801843FA05F359410EE0A5F105
:1003100020050EF1200E012A03FA0EFC28BF4CF036
:10032000020C43FA05F3C01851EBE37101F00045EC
:1003300007D54FF0000EDCF1000C7EEB00006EEBF9
:100340000101B1F5801F1BD3B1F5001F0CD3490883
:100350005FEA30004FEA3C0C04F101044FEA4452DA
:1003600012F5800F80F09A80BCF1004F08BF5FEA61
:10037000500C50F1000041EB045141EA050130BD41
:100380005FEA4C0C404141EB0101013C28BFB1F553
:10039000801FE9D291F0000F04BF01460020B1FA9E
:1003A00081F308BF2033A3F10B03B3F120020CDA71
:1003B0000C3208DD02F1140CC2F10C0201FA0CF04F
:1003C00021FA02F10CE002F11402D8BFC2F1200CB4
:1003D00001FA02F120FA0CFCDCBF41EA0C0190406A
:1003E000E41AA2BF01EB0451294330BD6FEA0404B3
:1003F0001F3C1CDA0C340EDC04F11404C4F120029E
:1004000020FA04F001FA02F340EA030021FA04F3AF
:1004100045EA030130BDC4F10C04C4F1200220FA06
:1004200002F001FA04F340EA0300294630BD21FA44
:1004300004F0294630BD94F0000F83F4801306BF0A
:1004400081F480110134013D4EE77FEA645C18BFFE
:100450007FEA655C29D094EA050F08BF90EA020F95
:1004600005D054EA000C04BF1946104630BD91EA8D
:10047000030F1EBF0021002030BD5FEA545C05D190
:100480004000494128BF41F0004130BD14F58004CF
:100490003CBF01F5801130BD01F0004545F0FE4143
:1004A00041F470014FF0000030BD7FEA645C1ABF78
:1004B000194610467FEA655C1CBF0B46024650EAAF
:1004C000013406BF52EA033591EA030F41F40021DB
:1004D00030BD00BF90F0000F04BF0021704730B561
:1004E0004FF4806404F132044FF000054FF0000136
:1004F00050E700BF90F0000F04BF0021704730B5F7
:100500004FF4806404F1320410F0004548BF4042CB
:100510004FF000013EE700BF42004FEAE2014FEA20
:1005200031014FEA02701FBF12F07F4393F07F4FFB
:1005300081F06051704732F07F4208BF704793F0FE
:100540007F4F04BF41F40021704730B54FF4607411
:1005500001F0004521F000411CE700BF50EA010214
:1005600008BF704730B54FF000050AE050EA0102BD
:1005700008BF704730B511F0004502D5404261EB2D
:1005800041014FF4806404F132045FEA915C3FF46E
:10059000D8AE4FF003025FEADC0C18BF03325FEA0B
:1005A000DC0C18BF033202EBDC02C2F1200300FABC
:1005B00003FC20FA02F001FA03FE40EA0E0021FAE1
:1005C00002F11444BDE600BF70B54FF0FF0C4CF4CF
:1005D000E06C1CEA11541DBF1CEA135594EA0C0F81
:1005E00095EA0C0F00F0DEF82C4481EA030621EABC
:1005F0004C5123EA4C5350EA013518BF52EA0335F7
:1006000041F4801143F4801338D0A0FB02CE4FF0A8
:100610000005E1FB02E506F00042E0FB03E54FF0D8
:100620000006E1FB03569CF0000F18BF4EF0010ED0
:10063000A4F1FF04B6F5007F64F5407404D25FEACC
:100640004E0E6D4146EB060642EAC62141EA55517F
:100650004FEAC52040EA5E504FEACE2EB4F1FD0CC1
:1006600088BFBCF5E06F1ED8BEF1004F08BF5FEA3F
:10067000500E50F1000041EB045170BD06F00046F1
:1006800046EA010140EA020081EA0301B4EB5C049E
:10069000C2BFD4EB0C0541EA045170BD41F4801196
:1006A0004FF0000E013C00F3AB8014F1360FDEBFBB
:1006B000002001F0004170BDC4F10004203C35DA97
:1006C0000C341BDC04F11404C4F1200500FA05F31A
:1006D00020FA04F001FA05F240EA020001F00042BB
:1006E00021F0004110EBD37021FA04F642EB060131
:1006F0005EEA430E08BF20EAD37070BDC4F10C045B
:10070000C4F1200500FA04F320FA05F001FA04F21E
:1007100040EA020001F0004110EBD37041F100010A
:100720005EEA430E08BF20EAD37070BDC4F1200515
:1007300000FA05F24EEA020E20FA04F301FA05F27D
:1007400043EA020321FA04F001F0004121FA04F225
:1007500020EA020000EBD3705EEA430E08BF20EAF5
:10076000D37070BD94F0000F0FD101F0004640002F
:1007700041EB010111F4801F08BF013CF7D041EAB1
:10078000060195F0000F18BF704703F000465200B5
:1007900043EB030313F4801F08BF013DF7D043EA86
:1007A0000603704794EA0C0F0CEA135518BF95EA3C
:1007B0000C0F0CD050EA410618BF52EA4306D1D1C3
:1007C00081EA030101F000414FF0000070BD50EAE2
:1007D000410606BF1046194652EA430619D094EA6C
:1007E0000C0F02D150EA013613D195EA0C0F05D156
:1007F00052EA03361CBF104619460AD181EA0301AA
:1008000001F0004141F0FE4141F470014FF0000061
:1008100070BD41F0FE4141F4780170BD70B54FF0FC
:10082000FF0C4CF4E06C1CEA11541DBF1CEA13557C
:1008300094EA0C0F95EA0C0F00F0A7F8A4EB05045E
:1008400081EA030E52EA03354FEA013100F0888055
:100850004FEA03334FF0805545EA131343EA12631E
:100860004FEA022245EA111545EA10654FEA0026D3
:100870000EF000419D4208BF964244F1FD0404F58C
:10088000407402D25B084FEA3202B61A65EB0305E8
:100890005B084FEA32024FF480104FF4002CB6EBA5
:1008A000020E75EB030E22BFB61A754640EA0C0025
:1008B0005B084FEA3202B6EB020E75EB030E22BF65
:1008C000B61A754640EA5C005B084FEA3202B6EBA6
:1008D000020E75EB030E22BFB61A754640EA9C0065
:1008E0005B084FEA3202B6EB020E75EB030E22BF35
:1008F000B61A754640EADC0055EA060E18D04FEAF3
:10090000051545EA16754FEA06164FEAC30343EA92
:1009100052734FEAC2025FEA1C1CC0D111F4801F5F
:100920000BD141EA00014FF000004FF0004CB6E758
:1009300011F4801F04BF01430020B4F1FD0C88BFF7
:10094000BCF5E06F3FF6AFAEB5EB030C04BFB6EB02
:10095000020C5FEA500C50F1000041EB045170BDF5
:100960000EF0004E4EEA113114EB5C04C2BFD4EB22
:100970000C0541EA045170BD41F480114FF0000EA6
:10098000013C90E645EA060E8DE60CEA135594EA22
:100990000C0F08BF95EA0C0F3FF43BAF94EA0C0F25
:1009A0000AD150EA01347FF434AF95EA0C0F7FF49A
:1009B00025AF104619462CE795EA0C0F06D152EAEE
:1009C00003353FF4FDAE1046194622E750EA4106D2
:1009D00018BF52EA43067FF4C5AE50EA41047FF4E3
:1009E0000DAF52EA43057FF4EBAE12E74FF0FF3C48
:1009F00006E000BF4FF0010C02E000BF4FF0010C19
:100A00004DF804CD4FEA410C7FEA6C5C4FEA430C91
:100A100018BF7FEA6C5C1BD001B050EA410C0CBFE0
:100A200052EA430C91EA030F02BF90EA020F002042
:100A3000704710F1000F91EA030F58BF994208BFA9
:100A400090422CBFD8176FEAE37040F00100704766
:100A50004FEA410C7FEA6C5C02D150EA013C07D1BD
:100A60004FEA430C7FEA6C5CD6D152EA033CD3D008
:100A70005DF8040B704700BF8446104662468C4602
:100A80001946634600E000BF01B5FFF7B7FF002835
:100A900048BF10F1000F01BD4DF808EDFFF7F4FF5E
:100AA0000CBF012000205DF808FB00BF4DF808EDE9
:100AB000FFF7EAFF34BF012000205DF808FB00BF0C
:100AC0004DF808EDFFF7E0FF94BF012000205DF82E
:100AD00008FB00BF4DF808EDFFF7CEFF94BF0120E3
:100AE00000205DF808FB00BF4DF808EDFFF7C4FFDC
:100AF00034BF012000205DF808FB00BF4FEA410C25
:100B00007FEA6C5C02D150EA013C0AD14FEA430C07
:100B10007FEA6C5C02D152EA033C02D14FF0000044
:100B200070474FF0010070474FEA410212F5001282
:100B300015D211D56FF47873B3EB625212D94FEA24
:100B4000C12343F0004343EA505311F0004F23FA0E
:100B500002F018BF404270474FF00000704750EA63
:100B6000013005D111F0004008BF6FF00040704720
:100B70004FF00000704700BF4FEA4102B2F1E0437E
:100B800024BFB3F5001CDCF1FE5C0DD901F0004C74
:100B90004FEAC0024CEA5070B2F1004F40EB8300C4
:100BA00008BF20F00100704711F0804F21D113F1F0
:100BB0003872BCBF01F00040704741F480114FEA29
:100BC0005252C2F11802C2F1200C10FA0CF320FAB2
:100BD00002F018BF40F001004FEAC1234FEAD323CF
:100BE00003FA0CFC40EA0C0023FA02F34FEA430339
:100BF000CCE77FEA625307D150EA01331EBF4FF0C2
:100C0000FE4040F44000704701F0004040F0FE40DC
:100C100040F40000704700BF53B94AB9002908BF2B
:100C200000281CBF4FF0FF314FF0FF3000F088B9B3
:100C3000ADF1080C6DE904CE00F006F8DDF804E033
:100C4000DDE9022304B070472DE9F047089D0F4607
:100C500004468C46002B48D18A42164661D9B2FA26
:100C600082F34BB1C3F1200201FA03FC20FA02F235
:100C70009E4042EA0C0C9C404FEA164EB7B2BCFBB9
:100C8000FEF1220C0EFB11CC42EA0C4201FB07F0F4
:100C9000904209D9B21801F1FF3C80F0EE809042F9
:100CA00040F2EB8002393244121AA4B2B2FBFEF0D9
:100CB0000EFB102244EA024400FB07F7A74209D9C1
:100CC000341900F1FF3280F0DA80A74240F2D78079
:100CD0003444023840EA0140E41B00211DB1DC40ED
:100CE0000023C5E90043BDE8F0878B4206D90DB16A
:100CF000C5E9000100210846BDE8F087B3FA83F199
:100D0000002948D1BB4202D3824200F20781841AF3
:100D100067EB030201209446002DE4D0C5E9004CA6
:100D2000E1E7002A00F09280B2FA82F3002B40F053
:100D3000A8808A1A4FEA164E1FFA86FC0121200C61
:100D4000B2FBFEF70EFB172240EA02420CFB07F053
:100D5000904207D9B21807F1FF3802D2904200F250
:100D6000E2804746121AA4B2B2FBFEF00EFB10223C
:100D700044EA02440CFB00FCA44507D9341900F1F5
:100D8000FF3202D2A44500F2CB801046A4EB0C0443
:100D900040EA0740A2E7C1F120068B4022FA06FC98
:100DA0004CEA030C07FA01F420FA06F3F7404FEA85
:100DB0001C49234300FA01F81FFA8CFEB7FBF9F037
:100DC0001C0C09FB107744EA074400FB0EF7A7420E
:100DD00002FA01F20AD91CEB040400F1FF3A80F098
:100DE0009B80A74240F2988002386444E41B9FB283
:100DF000B4FBF9F309FB134447EA044403FB0EFE7A
:100E0000A64509D91CEB040403F1FF3780F082806A
:100E1000A6457FD9023B644443EA0040A4EB0E049C
:100E2000A0FB02E7BC427346B94663D360D05DB114
:100E3000B8EB030264EB090404FA06F622FA01F3A4
:100E40001E43CC40C5E9006400214CE76208480815
:100E500042EAC1710B0C43EA00438AB242EA034200
:100E6000B3FBF6F1E407B4463746B6461F23B0FBA2
:100E7000F6F0D21B41EA004161E7614614E71046F3
:100E800028E7C3F1200120FA01F29E4027FA01F180
:100E90009F403A434FEA164E1FFA86FCB1FBFEF71D
:100EA0000EFB1710110C41EA004107FB0CF88845B6
:100EB00004FA03F43AD9711807F1FF3001D28845DA
:100EC0001FD8A1EB0801B1FBFEF808FB0CF70EFBE5
:100ED000181192B242EA0142BA422FD2B21808F176
:100EE000FF31C6D2BA42C4D2A8F102013244C0E7EF
:100EF000F0459CD2BEEB020367EB0C070138B94604
:100F000095E7A6EB08084144B81EB1FBFEF808FBC4
:100F10000CF7DCE73B467FE7504667E70846FBE611
:100F20003444023832E7023F32441BE7A1EB0801A8
:100F30003846B1FBFEF808FB0CF7C8E7414698E7D6
:100F4000704700BFD458C4500433C4188C42F9D33E
:100F50007047036004308842FBD370470C488546D5
:100F60000FF05EF90B480C490C4A0023FFF7EDFF28
:100F70000B480C490023FFF7EEFF0B480B490023F9
:100F8000FFF7E9FF1BF0F4FF01F0AEFDFEE7000004
:100F900000000320080000206C070020EC2002085D
:100FA000C00700200C2F0020E4010320670A032063
:100FB000FEE7000080B483B000AF7860064BD3F842
:100FC000902005497B681343C1F8903000BF0C376F
:100FD000BD465DF8047B70470008005880B485B0BA
:100FE00000AF78604FF0B043DA6C4FF0B0417B68EF
:100FF0001343CB644FF0B043DA6C7B681340FB6063
:10100000FB6800BF1437BD465DF8047B704780B4B1
:1010100085B000AF78604FF0B043D3F84C214FF06B
:10102000B0417B681343C1F84C314FF0B043D3F863
:101030004C217B681340FB60FB6800BF1437BD4642
:101040005DF8047B7047000080B500AF094B0122BA
:101050001A600FF0E9F90FF0EDF94FF48030FFF767
:10106000A9FF18F027FC00F023F800F0C3F800BF38
:1010700080BD00BFDC070020B0B588B000AF0B4BCF
:101080003C1D1D460FCD0FC495E8070003C4228008
:101090000234130C23701AF04FF93B1D184618F058
:1010A000A8FF00BF2037BD46B0BD00BF80EF0108DC
:1010B00080B588B000AF3B1D00221A605A609A606C
:1010C000DA601A610023BB8300237B8300233B8308
:1010D0000023FB7736E0FB7F434ADB0013449B7918
:1010E000002B2CD0FB7F404A52F833303F4A9342CA
:1010F0001BD03E4A934221D8B3F1904F03D03C4AD3
:10110000934209D01AE0FB7F374ADB0013449A88E8
:10111000BB8B1343BB8312E0FB7F334ADB001344DA
:101120009A887B8B13437B8309E0FB7F2E4ADB008D
:1011300013449A883B8B13433B8300E000BFFB7F43
:101140000133FB77FB7F252BC5D90023FB600123EF
:10115000BB6003233B61BB8B002B14D0BB8B7B603C
:101160000120FFF73BFF0120FFF751FF3B1D194610
:101170004FF090400FF080FEBB8B002219464FF0DD
:10118000904010F0C7F87B8B002B12D07B8B7B60DC
:101190000220FFF723FF0220FFF739FF3B1D19460E
:1011A00013480FF069FE7B8B00221946104810F09F
:1011B000B1F83B8B002B13D03B8B7B600420FFF7F7
:1011C0000DFF0420FFF723FF3B1D194607480FF0D2
:1011D00053FE3B8B00221946044810F09BF800BFD9
:1011E00000BF2037BD4680BDA8090208000800489E
:1011F0000004004880B400AF00BFBD465DF8047B2A
:10120000704780B500AF01F05BFD00BF80BD80B5C9
:1012100084B000AFF8600B467A607B817A897B6886
:10122000F968002001F096FB00BF1037BD4680BD75
:1012300080B483B000AF7860074BD3F8803023F0E0
:10124000070205497B681343C1F8803000BF0C37A3
:10125000BD465DF8047B70470004005880B483B03D
:1012600000AF7860064BD3F8902005497B681343A4
:10127000C1F8903000BF0C37BD465DF8047B704765
:101280000008005880B483B000AF78604FF0B043DE
:101290000A4AC3F89C204FF0B043D3F89C3023F4A3
:1012A0007C527B681B024FF0B0411343C1F89C3065
:1012B00000BF0C37BD465DF8047B7047FECAFECA0E
:1012C00080B483B000AF78604FF0B0439B6823F4E4
:1012D00000424FF0B0417B6813438B6000BF0C3776
:1012E000BD465DF8047B704780B400AF044B1B68BB
:1012F000C3F30B031846BD465DF8047B704700BF7F
:10130000002004E080B400AF044B1B681B0C9BB2B0
:101310001846BD465DF8047B704700BF002004E01E
:1013200080B400AF054B1B69044A23F0040313612A
:1013300000BFBD465DF8047B704700BF00ED00E0D4
:1013400080B483B000AF78607B68FF225A6200BF30
:101350000C37BD465DF8047B704780B483B000AFA6
:1013600078607B68CA225A627B6853225A6200BF47
:101370000C37BD465DF8047B704780B483B000AF86
:10138000786039607B689B6823F007023B681A43EA
:101390007B689A6000BF0C37BD465DF8047B7047E0
:1013A00080B500AF044B4FF400421A6100F09FF883
:1013B00000F0A4F800BF80BD0040005880B500AF29
:1013C00000F0B0F800F0C8F82249002001F032F82F
:1013D000FFF73AFE002100200EF032F91E481AF005
:1013E0003FF800201AF092F8002100200EF04CFB8C
:1013F00000200EF0F5F900200EF01EFA17481AF042
:10140000CDF8FF201AF0A2F800201AF0B3F800215E
:1014100000200EF039FB00200EF00EFA00F05DF80F
:10142000032100200EF032FD032100200EF0B6FD56
:10143000012100200DF036FF012100200DF0BAFF40
:1014400000F0E6FA00F0EAF900F060FA00F092F835
:1014500000BF80BDD8090020BC0B02089405002005
:1014600080B400AF00BFBD465DF8047B704780B517
:1014700000AF5020FFF7F2FE00BF80BD80B586B000
:1014800000AF3B1D00221A605A609A60DA601A6150
:101490000CF0FEFE80237B600223BB600223FB6016
:1014A00000233B6105237B613B1D19464FF09040B3
:1014B0000FF0E2FC00BF1837BD4680BD80B582B09A
:1014C00000AF78600CF086FE78680CF00DFFFFF737
:1014D000D5FF00BF0837BD4680BD80B500AF0CF01A
:1014E00079FE0CF00DFFFFF7C9FF00BF80BD80B48F
:1014F00000AF00BFBD465DF8047B704780B582B089
:1015000000AF002018F010FC78607B68002B05D03D
:101510007B689B791846FFF7B5FE00BF00BF083710
:10152000BD4680BD80B500AFFFF79AFFFFF79FFF74
:1015300000F002F800BF80BD80B500AF0548FFF79E
:101540000CFF00210348FFF718FF0248FFF7F8FEE1
:1015500000BF80BD0028004080B500AF4FF40040C0
:10156000FFF7AEFE1AF016FB0420FFF761FE00BF86
:1015700080BD000080B588B000AF19F023FD114A8E
:10158000002120201AF0CAFC0F4B3B600F4B7B6000
:101590003B4619460E4818F007FE0E4BBB600E4B3B
:1015A000FB600E4B3B6140F23C537B6107F108034B
:1015B000184619F04DFE19F0FFFC00BF2037BD465C
:1015C00080BD00BFE1A1010834070320E115000838
:1015D000F91500084C09032040080320F8010320F6
:1015E00080B483B000AF0346FB7100BF0C37BD462B
:1015F0005DF8047B7047000080B588B000AF78606C
:101600007B685B680B33FB61FB691B889BB2A3F5AE
:101610001243072B60D801A252F823F03D160008B0
:101620007F1600088D160008D9160008A9160008B4
:10163000B9160008C1160008D116000807F10C03FE
:10164000184618F003FD3B7B19467B7B1A46BB7B93
:1016500024481BF0CDFA3B7C194623481BF0C8FAFE
:10166000BB7D1946FB7D1A463B7E20481BF0C0FA25
:101670001F481BF0BDFA786800F070F82DE01D4897
:101680001BF0B6FA786800F043F826E01A481BF021
:1016900017FBFB6902331968FB6902335B681A4662
:1016A00016481BF0A5FA18E0FB6902331B681946BF
:1016B00013481BF09DFA10E012481BF099FA0CE059
:1016C000FB6902331B6819460F481BF091FA04E0CE
:1016D0000E481BF08DFA00E000BF00BF2037BD466A
:1016E00080BD00BF9CEF0108C0EF0108DCEF0108DE
:1016F000F4EF010814F0010838F0010888F001083F
:10170000B0F00108ECF0010810F101084CF10108FB
:1017100080B584B000AF78607B685B680B33FB609A
:10172000FB680233BB60BB681B78194608481BF096
:101730005FFABB681B78002B03D106481BF0C0FA88
:1017400003E005481BF0BCFA00BF1037BD4680BD62
:1017500070F10108A0F10108DCF1010880B58AB040
:1017600000AF786007F1080300221A605A609A609F
:10177000DA6000237B6200233B627B685B680B338B
:10178000FB61FB690233BB61BB691B78002B28D16D
:101790001D481BF095FAFFF76FFC0F233B727F2368
:1017A000BB72FFF7AFFD7862796A18481BF020FA28
:1017B0007B6A9BB2BB82FFF797FD3862396A144897
:1017C0001BF016FA3B6A9BB2FB8207F1080318462E
:1017D00018F026FC07F03AF8002101201AF0ECF985
:1017E0000EE0BB691B78012B06D10A481BF000FAFA
:1017F0007B6800221A7003E007481BF0F9F900BF6C
:101800002837BD4680BD00BF14F2010830F2010840
:1018100054F2010874F20108A8F2010880B500AF83
:10182000012100200CF094FD012101200CF090FD1D
:1018300000BF80BD80B584B000AF78600EF0D0FDF1
:10184000B8607B68FB60FB68B3F1FF3F0AD00EF025
:10185000DFFD03461A46FB681344FB6002E0FFF716
:101860005FFD30BF0EF0BCFD0246BB68D31AFA68BC
:101870009A42F4D800BF00BF1037BD4680BD80B586
:1018800000AF4FF0FF301AF0C7F900BF80BD80B441
:1018900000AF00BFBD465DF8047B704780B582B0E5
:1018A00000AF7860002120201AF05AFB00BF0837F3
:1018B000BD4680BD80B582B000AF786002201AF0CE
:1018C000BBFB00BF0837BD4680BD80B582B000AF0E
:1018D000786002201AF0D0FB00BF0837BD4680BDFB
:1018E00080B582B000AF0346FB80FB88B3F5805F14
:1018F00003D0B3F5005F03D003E007F0C3FA00E0C4
:1019000000BF00BF0837BD4680BD000080B500AFF6
:10191000034B01220349002000F0F8FF00BF80BD07
:1019200029190008E807002080B500AF154B1B8877
:10193000FF2B1ED8144B1B780D2B0FD113491448C5
:101940001BF056F900F028F80E4B00221A804FF4D5
:10195000807200210D481BF0B3FA0AE0094B1B8886
:101960005A1C91B2074A11801A46074B1978074B47
:101970009954084B01220449002000F0C7FF00BF22
:1019800080BD00BFF0080020E8070020F00700201D
:10199000DCF201082919000880B500AF134914488A
:1019A000FEF7EEFB0346002B09D112481BF088F925
:1019B000114B124A1A6010480FF03CFA14E010491B
:1019C0000B48FEF7DDFB0346002B09D10D481BF049
:1019D00077F9094B0C4A1A6007480FF02BFA03E01D
:1019E00003490A481BF004F900BF80BDECF201086E
:1019F000F0070020F0F20108E00700200C000016BC
:101A0000F8F20108FCF201080D00001604F30108C9
:101A100080B59AB000AF0023A7F866300CF0F4FE52
:101A20003B466322002118461BF04AFA3B46194602
:101A30001A4801F0FBFD0346002B1FD107F1660396
:101A40001A46C021154806F009FD0346002B14D1A3
:101A5000B7F866304EF6AA62934210D10F4801F0F3
:101A60000BFE0346002B07D10C4B0122C3F8642167
:101A70000A4806F0F7FD02E0FEE7FEE7FEE7084A47
:101A8000002140201AF04AFA064B012206490020A4
:101A900000F0AAFD00BF6837BD4680BD08000020E9
:101AA000111B0008E11A0008F208002080B500AF01
:101AB000044B1B784FF48061184600F093FE00BF82
:101AC00080BD00BFF208002080B500AF034B1B783B
:101AD000184600F003FE00BF80BD00BFF2080020E2
:101AE00080B500AF002140201AF03AFA00BF80BD57
:101AF00080B588B000AF3B1D1946044802F0FAFFDC
:101B0000BB8918462037BD4680BD00BF08000020B5
:101B1000B0B58EB002AFFFF7EBFF0346FB850023A5
:101B200001932023009380232022002100200DF028
:101B30007FFF2F4819F032FDFB8DB3F5FA6F29D2E4
:101B4000FB8D2C4AA2FB0323DB08BB85BA8D07F172
:101B50001803294918461BF0BBF8BB8D1E2B0CD867
:101B60003B1D264A1C4615460FCD0FC42B681A464E
:101B7000228002341B0C237025E03B1D204A1C46AA
:101B800015460FCD0FC42B681A46228002341B0C59
:101B9000237018E007F118031A4A1C4615460FCDAA
:101BA0000FC42B681A46228002341B0C23703B1D85
:101BB000154A1C4615460FCD0FC42B681A462280C5
:101BC00002341B0C237007F118020323202100208C
:101BD00019F088FD3A1D03232F21002019F082FD02
:101BE00000200DF029FE00BF3037BD46B0BD00BF5C
:101BF00094050020CDCCCCCC24F3010838F30108A7
:101C00004CF3010860F3010874F3010880B483B059
:101C100000AF7860064BD3F8802005497B681343FA
:101C2000C1F8803000BF0C37BD465DF8047B7047BB
:101C30000008005880B483B000AF7860054B1A6884
:101C400004497B6813430B6000BF0C37BD465DF849
:101C5000047B70470008005880B483B000AF0D4B80
:101C60009B6A9BB27B600B4B9B6A9BB23B6005E01F
:101C70003B687B60074B9B6A9BB23B607A683B6822
:101C80009A42F5D13B6818460C37BD465DF8047B97
:101C9000704700BF0028004080B485B000AF034605
:101CA0000A46FB711346BB71BA791D4913465B00A6
:101CB0001344DB000B4415331B78FB73FB7B062BB3
:101CC00009D0FA7B164913465B001344DB000B4432
:101CD0001433FA791A70FA79114913465B001344E8
:101CE000DB000B441533FA7B1A70FA790C49134662
:101CF0005B001344DB000B441433BA791A70BA79D1
:101D0000074913465B001344DB000B441533FA7993
:101D10001A7000BF1437BD465DF8047B704700BFE2
:101D2000F408002080B485B000AF03460A46FB717A
:101D30001346BB71294B1B78DBB2BA799A4232D079
:101D4000BA79274913465B001344DB000B44143374
:101D50001B78FB73FA7B224913465B001344DB00BC
:101D60000B441533FA791A70FA791D4913465B0052
:101D70001344DB000B441533BA791A70FA79184909
:101D800013465B001344DB000B441433FA7B1A70D8
:101D9000BA79134913465B001344DB000B44143338
:101DA000FA791A7014E0FA790D4913465B0013446E
:101DB000DB000B441533BA791A70BA790849134617
:101DC0005B001344DB000B441433FA791A7000BF34
:101DD0001437BD465DF8047B704700BF84090020BE
:101DE000F408002080B584B000AF0346FB714E4B71
:101DF0001B78DBB2062B18D14B4B1B78DAB24B4B5E
:101E00001A70494AFB791370FA79494913465B0005
:101E10001344DB000B44153306221A70454B4FF078
:101E2000FF321A600023FB8178E000F009F90346D5
:101E3000FB81FA793E4913465B001344DB000B44F7
:101E400008331968FB89FA791944394813465B004D
:101E50001344DB00034408331960FA79344913460C
:101E60005B001344DB000B4408331B68BB602E4B44
:101E70001B78DBB219462E4A0B465B000B44DB0095
:101E8000134408331B68BA689A4237D3264B1B7831
:101E90007B737A7B264913465B001344DB000B44BB
:101EA00015331B783B7313E07A7B214913465B00A3
:101EB0001344DB000B4415331B787B737A7B1C497E
:101EC00013465B001344DB000B4415331B783B7354
:101ED0003B7B062B0BD03A7B154913465B00134422
:101EE000DB000B4408331B68BA689A42DCD27A7B69
:101EF000FB7911461846FFF7CFFE0FE00A4B1B781F
:101F0000DAB2FB7911461846FFF70CFF064B1B7837
:101F1000DAB2064B1A70044AFB791370FB89184633
:101F20001037BD4680BD00BF840900208509002010
:101F3000F40800208809002080B485B000AF034673
:101F40000A46FB711346BB71394B1B78DBB2FA7939
:101F50009A4211D1364B1B78DAB2364B1A70FA79A5
:101F6000354913465B001344DB000B4415331B78E3
:101F7000DAB22F4B1A703EE0FA792F4913465B0014
:101F80001344DB000B4414331B78FB73FA792A49A2
:101F900013465B001344DB000B4415331B78BB7303
:101FA000F979FA7B24480B465B000B44DB000344C1
:101FB00015331B78D8B2204913465B001344DB006D
:101FC0000B44153302461A70BB7B062B13D0F979EC
:101FD000BA7B19480B465B000B44DB000344143307
:101FE0001B78D8B2144913465B001344DB000B4442
:101FF000143302461A70FA790F4913465B001344F2
:10200000DB000B440C3301221A70094B1B78DBB246
:10201000062B07D1BB79002B04D1084B4FF0FF32C0
:102020001A6000BF00BF1437BD465DF8047B7047DF
:102030008409002085090020F40800208809002078
:1020400080B582B000AF1A4B1B68B3F1FF3F26D0BA
:10205000FFF702FE7860164B1B687A689A4205D833
:10206000134B1A687B68D31A7B600AE0114B1B88FC
:102070001A467B68D31A3B600D4B1B683A681344C1
:102080007B600D4B1B781A467B6802FB03F37B6079
:102090000A4B1B781A467B68D3407B6001E0002323
:1020A0007B607B689BB218460837BD4680BD00BF89
:1020B00088090020900900208E0900208D09002049
:1020C00080B582B000AF0346FB80FB88002B08D1AF
:1020D000FFF7C2FD0346214A136003200EF02DFBDB
:1020E00039E0FB88012B03D81D4B1B78012B02D054
:1020F000FB88013BFB8000BF1A4B1B68DB6803F0C9
:102100000403002BF8D0174B1B68DB68DAB2154BC1
:102110001B6862F49062DA60134B4FF40022DA60BD
:1021200003200EF018FB114B5B691B0C1B04FA8893
:102130000E4913434B61FFF78FFD0346074A1360B7
:10214000084B1B689A68074B1B6842F480629A60D0
:10215000AFF3008000BF0837BD4680BD880900206E
:102160008D090020D80900200008005800280040F0
:1021700080B584B000AF454B9B6803F48063B3F532
:10218000806F07D100BF424B1B68DB6803F004037C
:10219000002BF8D13E4B1B689A683D4B1B6822F41C
:1021A00080629A603B4B1B78FB73FA7B3A4913467B
:1021B0005B001344DB000B4408331B68BB60FFF774
:1021C0003FFF0346FB80FB88BA689A4205D2002392
:1021D000BB81324B01221A704DE0FB88304A1288D5
:1021E00092B213441A46BB68934206D92C4B1B8803
:1021F000BB812A4B00221A703DE0BB689AB2FB8873
:10220000D31ABB81254B01221A7034E0FA7B224994
:1022100013465B001344DB000B4408331A68FB8849
:102220009A420AD2FA7B1C4913465B001344DB0036
:102230000B44083300221A6013E0FA7B1649134658
:102240005B001344DB000B4408331968FB88FA7BFE
:10225000C91A114813465B001344DB0003440833DA
:102260001960FA7B0C4913465B001344DB000B44F6
:1022700015331B78FB73FB7B062BC7D1BB89184634
:10228000FFF71EFF00BF1037BD4680BD002800408D
:10229000D809002084090020F40800208C090020BF
:1022A0009209002080B58AB000AFEFF310837B6104
:1022B0007B697B6272B600BF594B1B68CA225A62A7
:1022C000574B1B6853225A62554B1B689A68544BF4
:1022D0001B6822F480629A60524B1B7887F8233087
:1022E00097F82320504913465B001344DB000B444E
:1022F0000C331B78DBB2022B6ED197F823204A49AE
:1023000013465B001344DB000B441B68FB6197F82A
:102310002320454913465B001344DB000B44103374
:102320001B68BB61414B1B78DBB2002B4CD097F88C
:1023300023203D4913465B001344DB000B440D335F
:102340001B78DBB2012B24D197F8233001211846EA
:10235000FFF7F2FD7B6A3B613B6983F3108800BFA6
:1023600097F82320304913465B001344DB000B44ED
:1023700004331A6897F823301146184600F032FAF1
:10238000274B1B68CA225A62254B1B6853225A628C
:1023900012E07B6AFB60FB6883F3108800BF97F84C
:1023A0002330184600F09AF91D4B1B68CA225A6266
:1023B0001B4B1B6853225A6297F82330FA6919465F
:1023C000B86900F095FA22E0FFF7D2FE7B6ABB60A5
:1023D000BB6883F310881AE000BF114B1B68DB68F1
:1023E00003F00403002BF8D00D4B1B68DB68DAB256
:1023F0000B4B1B6862F49062DA600D4B4FF40022C5
:10240000DA607B6A7B607B6883F3108800BF044BD3
:102410001B68FF225A6200BF2837BD4680BD00BF3F
:10242000D809002084090020F40800208C0900202D
:102430000008005880B588B000AF03463960FB71D2
:102440005E4B1B68CA225A625C4B1B6853225A625D
:102450005B4B9B685A4A43F020039360584B9B6840
:10246000DBB203F00703DBB2C3F10403DAB2554B6E
:102470001A70534B1B6903F4FE034FF4FE023A61DA
:102480003A6992FAA2F2FA60FA687A617A69002AE5
:1024900001D1202203E07A69B2FA82F2D2B2D340AB
:1024A000DBB20133DAB2484B1A70454B1B699BB261
:1024B000C3F30E039BB201339AB2444B1A80434BD1
:1024C0001B88013B404A127802FB03F3A3F5A0737B
:1024D0003C4A1278D340BB61BB694FF6FE7293420F
:1024E00004D93B4B4FF6FF721A8003E0BB699AB2E6
:1024F000374B1A804FF40020FFF79CFB4FF400206D
:10250000FFF784FBFB79002B3DD1324B01221A707F
:10251000314B4FF0FF321A600023FB770CE0FA7F5B
:102520002E4913465B001344DB000B440C3300229E
:102530001A70FB7F0133FB77FB7F052BEFD9284B0C
:1025400006221A701D4B1B689A681C4B1B6822F4EC
:1025500080629A60194B1B68DB68DAB2174B1B6804
:1025600062F49062DA601F4B4FF40022DA600320BD
:102570000EF0F1F8114B1B689A68104B1B6842F47F
:1025800080429A6009E00D4B1B68DB6803F48063AE
:10259000002B02D003200EF0D0F8084B1B68FF225E
:1025A0005A620022032103200EF085F803200EF06A
:1025B0009CF800BF2037BD4680BD00BFD809002071
:1025C000002800408D0900208E090020900900207D
:1025D000920900208C09002088090020F4080020BE
:1025E000840900200008005880B48BB000AFF86068
:1025F000B9603B601346FB71002387F82630EFF388
:102600001083FB61FB693B6272B600BF04E097F880
:102610002630013387F8263097F82630052B0CD862
:1026200097F826202C4913465B001344DB000B442B
:102630000C331B78DBB2002BE9D197F82630062B40
:1026400038D097F82620244913465B001344DB005A
:102650000B440C3301221A703B6ABB61BB6983F3E4
:10266000108800BF97F826201B4913465B001344CF
:10267000DB000B441033FA681A6097F826201649DD
:1026800013465B001344DB000B440D33FA791A70D8
:1026900097F82620104913465B001344DB000B44D7
:1026A0003A681A60BB6897F826201A70002387F8EA
:1026B000273008E03B6A7B617B6983F3108800BFA9
:1026C000012387F8273097F8273018462C37BD4666
:1026D0005DF8047B704700BFF408002080B586B029
:1026E00000AF0346FB71EFF31083FB60FB687B6177
:1026F00072B600BF03200EF006F8344B1B68CA22E6
:102700005A62324B1B6853225A62FA793049134697
:102710005B001344DB000B440C331B78DBB2022B51
:1027200042D1FB7900211846FFF706FC294B1B78A4
:10273000FB74FB7C062B2FD1274B9B6803F4806333
:10274000B3F5806F07D100BF204B1B68DB6803F037
:102750000403002BF8D11D4B1B689A681B4B1B68A8
:1027600022F480629A6000BF184B1B68DB6803F09C
:102770000403002BF8D0154B1B68DB68DAB2134B4F
:102780001B6862F49062DA60144B4FF40022DA6046
:1027900003200DF0E0FF07E0114B1B78DBB2FA7C61
:1027A0009A4201D0FFF7E4FC084B1B68FF225A62F3
:1027B00003200DF09AFF7B69BB60BB6883F3108830
:1027C00000BF00BF1837BD4680BD00BFD80900203C
:1027D000F408002084090020002800400008005868
:1027E0008509002080B586B000AF03463960FB71D3
:1027F000FA793B4913465B001344DB000B440C336E
:102800001B78DBB2022B03D1FB791846FFF766FF7A
:10281000EFF31083FB60FB687B6172B600BF03209F
:102820000DF071FF2F4B1B68CA225A622D4B1B689B
:1028300053225A62FA792A4913465B001344DB009B
:102840000B440C3302221A70FA79254913465B00B7
:102850001344DB000B4408333A681A60FA792049C4
:1028600013465B001344DB000B4404333A681A60E0
:10287000FB791846FFF7B6FA03467B821A4B1B78A2
:102880007B741A4B1B78DBB27A7C9A4202D0FFF73A
:102890006FFC13E0FA79124913465B001344DB0026
:1028A0000B44083319687B8AFA79C91A0C48134615
:1028B0005B001344DB00034408331960094B1B68B9
:1028C000FF225A6203200DF010FF7B69BB60BB68DA
:1028D00083F3108800BF00BF1837BD4680BD00BF1E
:1028E000F4080020D8090020840900208509002070
:1028F00080B584B000AFF8600B467A60FB727B68ED
:10290000984700BF1037BD4680BD000080B584B039
:1029100000AFB9607B600346FB731346BB81FB7B52
:10292000002B0CD1084A7B681360084B084A1A60D8
:10293000BB891A46B968054813F030FD00E000BFB6
:1029400000BF1037BD4680BD94090020FC0900205F
:102950000038014080B586B000AFB9607B600346A7
:10296000FB731346BB810023FB750023BB75FB7B08
:10297000002B0ED1174A7B681360174B174A1A6059
:10298000BB891A46B968144813F054FD0346FB7519
:1029900000E000BFFB7D032B16D801A252F823F004
:1029A000B1290008B7290008BD290008C32900087B
:1029B0000023BB7509E00123BB7506E00223BB754C
:1029C00003E00323BB7500E000BFBB7D184618374A
:1029D000BD4680BD98090020FC0900200038014058
:1029E00080B582B000AF78607B681B681A46094BDF
:1029F0009A4207D1084B1B68002B05D0064B1B6879
:102A0000984701E000BF00E000BF00BF0837BD46A7
:102A100080BD00BF003801409409002080B582B01D
:102A200000AF78607B681B681A46094B9A4207D151
:102A3000084B1B68002B05D0064B1B68984701E02C
:102A400000BF00E000BF00BF0837BD4680BD00BF2B
:102A5000003801409809002080B483B000AF78604E
:102A60004FF0B043D3F8903023F018024FF0B0414C
:102A70007B681343C1F8903000BF0C37BD465DF84A
:102A8000047B704780B485B000AF78604FF0B043EE
:102A90009A6C4FF0B0417B6813438B644FF0B043A6
:102AA0009A6C7B681340FB60FB6800BF1437BD461F
:102AB0005DF8047B704780B485B000AF78604FF05C
:102AC000B043DA6C4FF0B0417B681343CB644FF0F6
:102AD000B043DA6C7B681340FB60FB6800BF1437BF
:102AE000BD465DF8047B704780B500AF0DF00AFC71
:102AF000FEF756FC00F012F800F07CF800F09AF8AF
:102B000000F03EF900F02AF900F0B0F800F0A6F865
:102B1000FEF754FCFEF7B3FEFCE7000080B59AB068
:102B200000AF07F120034822002118461AF0C8F927
:102B30003B1D00221A605A609A60DA601A615A617D
:102B40009A610FF0DBFD1020FFF786FF284B1B6812
:102B500023F4C063264A43F400731360244B1B68BC
:102B600003F4C0633B603B6807233B624FF4803350
:102B70007B620123BB624FF48073FB6240233B63A3
:102B80000223FB6403233B6570237B652023BB6525
:102B90004FF40033FB654FF000537B664FF000733A
:102BA0003B6607F12003184610F03CF90346002B62
:102BB00001D000F0DDFA6F237B600323BB600023AC
:102BC000FB6000233B6100237B618023BB6100230A
:102BD000FB613B1D0321184610F098FC0346002BB7
:102BE00001D000F0C5FA00BF6837BD4680BD00BF08
:102BF0000004005880B594B000AF3B46502200213D
:102C000018461AF05DF94FF440533B604FF480438F
:102C10007B640023BB641023FB643B46184611F021
:102C2000A0FA0346002B01D000F0A2FA00BF5037F3
:102C3000BD4680BD80B500AF064B074A1A60054807
:102C40000FF0D6FC0346002B01D000F091FA00BF34
:102C500080BD00BF9C090020000C005880B400AF6C
:102C600000BFBD465DF8047B7047000080B500AF33
:102C7000114B124A1A60104B00225A600E4B0F2261
:102C80009A600D4B47F6FF72DA600B4B00221A6117
:102C9000094B00229A61084B0022DA61064B0022A0
:102CA0005A61054812F0A8FA0346002B01D000F043
:102CB0005FFA00BF80BD00BFD80900200028004097
:102CC00080B500AF234B244A1A60224B4FF4E13207
:102CD0005A60204B00229A601E4B0022DA601D4B86
:102CE00000221A611B4B0C225A611A4B00229A6176
:102CF000184B4FF40042DA61164B00221A62154B52
:102D000000225A62134B00229A62124813F0F6FA1C
:102D10000346002B01D000F02BFA00210D4815F0DE
:102D20005AFB0346002B01D000F022FA002109488B
:102D300015F08FFB0346002B01D000F019FA05486F
:102D400015F010FB0346002B01D000F011FA00BF74
:102D500080BD00BFFC0900200038014080B500AFF5
:102D60000420FFF78FFE0220FFF78CFE00220F21C8
:102D70003A200DF0A0FC3A200DF0B7FC00BF80BD5A
:102D800080B586B000AF3B1D00221A605A609A6081
:102D9000DA601A610120FFF78EFE0420FFF78BFE38
:102DA0000220FFF788FE0820FFF785FE1020FFF7BE
:102DB00082FE8020FFF77FFE00220321BD480EF037
:102DC000A9FA00224FF44071BB480EF0A3FA00228A
:102DD0004FF48071B9480EF09DFA00220421B848E2
:102DE0000EF098FA25237B600323BB600023FB6071
:102DF0003B1D19464FF090400EF03EF83A237B60A1
:102E00000323BB600023FB603B1D1946AA480EF05C
:102E100033F840F604437B600023BB600023FB6073
:102E20003B1D1946A4480EF027F84FF400737B6051
:102E30000223BB600023FB6000233B610A237B610C
:102E40003B1D19469F480EF017F801237B600223B3
:102E5000BB600023FB6000233B6108237B613B1DBB
:102E6000194695480EF008F84FF480737B601223E2
:102E7000BB600023FB6000233B6104237B613B1D9F
:102E8000194690480DF0F8FF4FF481537B60022300
:102E9000BB600023FB6000233B6108237B613B1D7B
:102EA000194688480DF0E8FF4FF400437B60022389
:102EB000BB600023FB6000233B6101237B613B1D62
:102EC00019464FF090400DF0D7FF4FF480637B60C0
:102ED0001223BB600023FB6000233B6104237B6162
:102EE0003B1D19464FF090400DF0C6FF4FF4C05304
:102EF0007B600223BB600023FB6000233B610A234D
:102F00007B613B1D19464FF090400DF0B5FF032348
:102F10007B600223BB600023FB6000233B61052331
:102F20007B613B1D194665480DF0A6FFC0237B6001
:102F30000223BB600023FB6000233B6109237B610C
:102F40003B1D19465C480DF097FF4FF440437B60F2
:102F50000223BB600023FB6000233B6105237B61F0
:102F60003B1D194657480DF087FF12237B60002355
:102F7000BB600023FB603B1D194651480DF07CFFF0
:102F80004FF480637B600223BB600023FB6000235F
:102F90003B6101237B613B1D19464A480DF06CFFE4
:102FA00004237B600023BB600023FB603B1D1946AC
:102FB00044480DF061FF4FF440737B600223BB6017
:102FC0000023FB6000233B6103237B613B1D19460B
:102FD0004FF090400DF050FF40237B600223BB6018
:102FE0000023FB6000233B6108237B613B1D1946E6
:102FF0004FF090400DF040FF08237B600223BB6040
:103000000023FB6000233B610A237B613B1D1946C3
:103010004FF090400DF030FF03237B600123BB6035
:103020000023FB6000233B613B1D194621480DF046
:1030300023FF4FF440437B600223BB600023FB600F
:1030400000233B6101237B613B1D19461B480DF0AA
:1030500013FF43F210037B600023BB600023FB607F
:103060003B1D194615480DF007FF4FF401737B60B7
:103070004FF48813BB600023FB603B1D19460F48CB
:103080000DF0FAFE4FF440737B600123BB60002318
:10309000FB6000233B613B1D194607480DF0ECFE29
:1030A00068237B600223BB600023FB6000233B613D
:1030B0000A2309E0001C004800080048000C0048F2
:1030C00000100048000400487B613B1D194626485B
:1030D0000DF0D2FE08237B604FF48813BB60002301
:1030E000FB603B1D194621480DF0C6FE4FF480736E
:1030F0007B600123BB600023FB6000233B613B1D21
:10310000194619480DF0B8FE4FF440637B60022366
:10311000BB600023FB6000233B6109237B613B1DF7
:10312000194611480DF0A8FE04237B600123BB6003
:103130000023FB6000233B613B1D19460B480DF04B
:103140009BFE01237B600223BB600023FB60002306
:103150003B610E237B613B1D194604480DF08CFE3C
:1031600000BF1837BD4680BD000C00480010004865
:1031700080B400AF72B600BF00BFFDE780B400AFFF
:103180004FF0B043D3F890304FF0B04243F40043D7
:10319000C2F8903000BFBD465DF8047B704780B434
:1031A00085B000AF78604FF0B043DA6C4FF0B041BB
:1031B0007B681343CB644FF0B043DA6C7B681340F9
:1031C000FB60FB6800BF1437BD465DF8047B7047A9
:1031D00080B485B000AF78604FF0B0431A6D4FF007
:1031E000B0417B6813430B654FF0B0431A6D7B68A9
:1031F0001340FB60FB6800BF1437BD465DF8047BDD
:10320000704780B485B000AF78604FF0B0439A6DDE
:103210004FF0B0417B6813438B654FF0B0439A6D1C
:103220007B681340FB60FB6800BF1437BD465DF848
:10323000047B704780B485B000AF78604FF0B04336
:103240001A6E4FF0B0417B6813430B664FF0B043EA
:103250001A6E7B681340FB60FB6800BF1437BD46E5
:103260005DF8047B704780B500AF4FF40020FFF796
:10327000AFFF002200212E200DF01DFA2E200DF0B0
:1032800034FA00BF80BD000080B582B000AF786026
:103290007B681B68054A934203D14FF48010FFF707
:1032A00097FF00BF0837BD4680BD00BF000C005827
:1032B00080B596B000AF786007F108035022002176
:1032C000184619F0FDFD7B681B680E4A934215D124
:1032D0004FF40063BB604FF48073BB6407F10803D5
:1032E000184610F03EFF0346002B01D0FFF740FFC9
:1032F000FFF744FF4FF48060FFF783FF00BF5837AC
:10330000BD4680BD0028004080B59CB000AF78600D
:1033100007F15C0300221A605A609A60DA601A6151
:1033200007F10C0350220021184619F0C9FD7B68F3
:103330001B682E4A934255D10123FB6000237B6218
:1033400007F10C03184610F00CFF0346002B01D0C8
:10335000FFF70EFF4FF48040FFF76CFF0220FFF7EE
:103360001EFFC023FB6502233B6601237B6603230C
:10337000BB660723FB6607F15C0319461C480DF08A
:103380007BFD1C4B1C4A1A601A4B0F225A60194BCA
:1033900010229A60174B0022DA60164B80221A61C5
:1033A000144B00225A61134B00229A61114B0022E8
:1033B000DA61104B00221A620E480DF0DBF9034669
:1033C000002B01D0FFF7D4FE7B680A4ADA67094A6E
:1033D0007B6893620022002124200DF06CF92420E8
:1033E0000DF083F900BF7037BD4680BD0038014045
:1033F00000040048900A00204404024080B400AF5A
:1034000000BFFDE780B400AF00BFFDE780B400AFB0
:1034100000BFFDE780B400AF00BFFDE780B400AFA0
:1034200000BFFDE780B400AF00BFBD465DF8047B80
:10343000704780B400AF00BFBD465DF8047B7047A5
:1034400080B400AF00BFBD465DF8047B704780B517
:1034500000AF0CF0B1FF00BF80BD000080B500AF31
:10346000024813F067F800BF80BD00BFFC090020D0
:1034700080B500AF0DF07EFF00BF80BD80B500AF0E
:1034800002480DF058FB00BF80BD00BF900A00202D
:1034900080B500AF07F014F800BF80BD80B500AF65
:1034A00007F044F800BF80BD80B500AF4FF48050F6
:1034B0000DF048FF4FF400500DF044FF00BF80BDF9
:1034C00080B500AF0AF02EFF00BF80BD80B500AF11
:1034D000FEF7E8FE00BF80BD80B400AF01231846B0
:1034E000BD465DF8047B704780B582B000AF786060
:1034F000396019F037FD034616221A604FF0FF338A
:1035000018460837BD4680BD80B582B000AF7860F0
:103510004FF0FF317868FFF7E7FF00BFFDE780B5A8
:1035200086B000AFF860B9607A6000237B610AE082
:10353000AFF300800146BB685A1CBA60CAB21A7069
:103540007B6901337B617A697B689A42F0DB7B6837
:1035500018461837BD4680BD80B483B000AF786090
:103560004FF0FF3318460C37BD465DF8047B7047BB
:1035700080B483B000AF786039603B684FF400528C
:103580005A60002318460C37BD465DF8047B70472F
:1035900080B483B000AF7860012318460C37BD4675
:1035A0005DF8047B704780B485B000AFF860B96007
:1035B0007A60002318461437BD465DF8047B7047D7
:1035C00080B586B000AF7860144A154BD31A7B6182
:1035D0007B693B61134B1B68002B02D1114B124AD4
:1035E0001A60104B1A687B6813443A699A4207D2F2
:1035F00019F0B8FC03460C221A604FF0FF3309E0C3
:10360000084B1B68FB60074B1A687B681344054A2C
:103610001360FB6818461837BD4680BD00000320C4
:1036200000100000F00A0020102F002080B584B0A8
:1036300000AF786039600023FB733968786804F064
:10364000C1FD0346FB7397F90F3018461037BD468E
:1036500080BD80B584B000AF786039600023FB7313
:103660003968786801F043FC0346FB7397F90F3023
:1036700018461037BD4680BDB0B594B000AF786035
:10368000002387F84F3097F94F30002B07D10022E5
:103690008821786804F054FF034687F84F307B6830
:1036A000002283F8F0207B684FF47A72A3F84E2151
:1036B0007B684FF4C872A3F850217B68714AC3F845
:1036C00054217B68704AC3F8D4207B6800221A62B8
:1036D00007F108031946786800F058FA034687F89E
:1036E0004F3097F94F30002B12D100233B7200234B
:1036F0007B727B6803F1100407F108050FCD0FC43E
:103700000FCD0FC40FCD0FC495E80F0084E80F0054
:103710007B686422A3F834217B684FF46172A3F8BC
:1037200036217B684FF4FA72A3F838217B684FF496
:103730002062A3F83A217B68012283F84C21002300
:10374000BB6414E097F94F30002B14D1BB6C9BB2D3
:1037500001221946786800F063FD03461A4697F87F
:103760004F30134387F84F30BB6C0133BB64BB6CE5
:10377000052BE7DD00E000BF97F94F30002B07D1A4
:1037800000220221786800F04BFD034687F84F3095
:1037900097F94F30002B07D100220321786800F001
:1037A0003FFD034687F84F3097F94F30002B07D184
:1037B00000220421786800F033FD034687F84F307B
:1037C00097F94F30002B07D100220521786800F0CF
:1037D00027FD034687F84F3097F94F30002B08D16B
:1037E0004FF490120021786800F0CAFD034687F874
:1037F0004F3097F94F30002B08D14FF48042012110
:10380000786800F0BDFD034687F84F3097F94F30D8
:10381000002B08D14FF40C120221786800F0B0FDA3
:10382000034687F84F3097F94F30002B07D100221D
:103830000321786800F0A4FD034687F84F3097F91C
:103840004F30002B0FD17B68FF2283F83021FF22FD
:103850000121786804F074FE034687F84F307B68D6
:10386000012283F8322197F94F30002B03D17B6876
:10387000002283F8152197F94F3018465037BD467E
:10388000B0BD00BF856B0100A4700900B0B59EB04B
:1038900002AF7860002387F86F3007F11C034022E5
:1038A0000021184619F00CFB00237B8300237B7654
:1038B000002387F8673000233B6600233B76002314
:1038C0007B61002387F85F300121786802F062FA9B
:1038D000034687F86F307B6893F813313B667B684B
:1038E00093F8143187F85F3097F85F30012B0DD8CB
:1038F00097F85F30012B02D13B6E202B06D897F84A
:103900005F30002B0ED13B6E0C2B0BD907F1180248
:1039100007F114031946786801F0E4FC034687F8C0
:103920006F3009E097F85F301A46396E786801F019
:10393000E5FE034687F86F30934BBB6697F96F300F
:10394000002B0FD17B6893F84C3187F8673097F8DC
:103950006730002B04D17B68D3F84831BB6601E0A7
:10396000894BBB6697F96F30002B06D1B96E78682A
:1039700003F0B6FD034687F86F3097F96F30002BE0
:103980000AD100230093042300220021786801F06B
:10399000E1F8034687F86F3097F96F30002B21D19B
:1039A0000122FF21786804F0CBFD034687F86F30D1
:1039B00007F11A031A468421786804F04FFD034684
:1039C0001A4697F86F30134387F86F300022FF21B3
:1039D000786804F0B5FD03461A4697F86F30134334
:1039E00087F86F3097F96F30002B04D17B8B1A0169
:1039F0007B68C3F8D42097F96F30002B08D107F10A
:103A00001C031946786800F0C1F8034687F86F3048
:103A100097F96F30002B10D107F119031946786818
:103A200000F083F9034687F86F3097F96F30002B69
:103A300003D17A7E7B6883F8312197F96F30002BB0
:103A40000ED17B6803F1100407F11C050FCD0FC4E4
:103A50000FCD0FC40FCD0FC495E80F0084E80F0001
:103A600097F96F30002B11D107F119031A46012184
:103A7000786804F06CFC034687F86F3097F96F3074
:103A8000002B03D17A7E7B6883F8302197F96F3061
:103A9000002B07D100220021786800F0BBF9034613
:103AA00087F86F3097F96F30002B07D10022022181
:103AB000786800F0AFF9034687F86F3097F96F30F8
:103AC000002B03D17B68032283F8322197F96F30F2
:103AD000002B09D107F113031A460021786800F082
:103AE00081F9034687F86F3097F96F30002B03D1C7
:103AF000FA7C7B6883F8E82097F96F30002B09D1B6
:103B000007F113031A460121786800F06BF90346A8
:103B100087F86F3097F96F30002B03D1FA7C7B6800
:103B200083F8E02097F96F30002B09D107F10C03DF
:103B30001A460321786800F0B7FA034687F86F3019
:103B400097F96F30002B03D1FA687B68C3F8E42043
:103B500097F96F30002B09D107F10C031A460421A5
:103B6000786800F0A1FA034687F86F3097F96F3054
:103B7000002B03D1FA687B68C3F8DC2097F96F301B
:103B800018467037BD46B0BD9001002080B584B0A6
:103B900000AF786039600023FB733B681946786892
:103BA00000F0B0F80346FB7397F90F30002B07D1F4
:103BB0003B6808331946786800F0B6FA0346FB7391
:103BC00097F90F30002B02D13B6800221A7397F946
:103BD0000F30002B07D13B6810331946786800F08E
:103BE000ECFA0346FB7397F90F30002B07D13B68C3
:103BF000143319467868FFF72CFD0346FB7397F9D9
:103C00000F30002B34D10023BB602AE097F90F302E
:103C1000002B2AD1BB6899B2BB6808339B003A6875
:103C2000134404331A46786800F00CFC03461A4625
:103C3000FB7B1343FB7397F90F30002B17D1BB6845
:103C400099B2BB6818333A6813441A46786800F092
:103C500073FB03461A46FB7B1343FB73BB680133BC
:103C6000BB60BB68052BD1DD02E000BF00E000BFF8
:103C700097F90F30002B07D13B683C331946786821
:103C800000F06EFC0346FB7397F90F30002B07D151
:103C90003B6804331946786800F079F80346FB73F3
:103CA00097F90F3018461037BD4680BD80B485B0F7
:103CB00000AF78600B46FB700023FB73FB78152B7D
:103CC0008CBF01220022D2B2002A0FD10C4A22FA64
:103CD00003F303F00103002B14BF01230023DBB225
:103CE000002B03D07B68FA781A7401E0F823FB7389
:103CF00097F90F3018461437BD465DF8047B7047BE
:103D00000B00300080B485B000AF786039600023CC
:103D1000FB737B681A7C3B681A7097F90F30184662
:103D20001437BD465DF8047B704780B584B000AFA2
:103D3000786039600023FB733A680921786804F0E1
:103D400006FB0346FB7397F90F30002B06D13B6847
:103D50001B7803F00103DAB23B681A7097F90F3051
:103D600018461037BD4680BD80B584B000AF78607E
:103D700039600023FB733968786803F01FFA034643
:103D8000FB7397F90F3018461037BD4680BD80B5DC
:103D900084B000AF786039600023FB7339687868BD
:103DA00003F0ECFA0346FB7397F90F30184610370F
:103DB000BD4680BD80B584B000AF78600B46FB7017
:103DC0001346BB700023FB73BA78FB7819467868FA
:103DD00002F036FF0346FB7397F90F301846103791
:103DE000BD4680BD80B586B000AFF8600B467A60F6
:103DF000FB720023FB75FB7A7A681946F86803F0BA
:103E0000A6F90346FB7597F9173018461837BD46D3
:103E100080BD000080B586B000AF78600B46FB70B7
:103E20001346BB700023FB750023FB730023BB7597
:103E300007F10F031A460121786804F088FA034657
:103E4000FB75FB7BBB7597F91730002B59D1BB78FD
:103E5000012B2BD1FB78042B25D801A252F823F09B
:103E6000753E00087F3E0008893E0008933E00082A
:103E70009D3E0008BB7D43F01003BB7541E0BB7D58
:103E800043F02803BB753CE0BB7D43F00403BB75E6
:103E900037E0BB7D43F04003BB7532E0BB7D63F090
:103EA0007F03BB752DE0FC23FB752AE0FB78042B18
:103EB00025D801A252F823F0CD3E0008D73E0008D5
:103EC000E13E0008EB3E0008F53E0008BB7D23F014
:103ED0001003BB7515E0BB7D23F02803BB7510E014
:103EE000BB7D23F00403BB750BE0BB7D23F04003D7
:103EF000BB7506E0BB7D03F07F03BB7501E0FC23CF
:103F0000FB75FB7BBA7D9A421ED097F91730002BC8
:103F100007D1BB7D1A460121786804F011FB0346E6
:103F2000FB7597F91730002B03D17B68BA7D83F8B6
:103F3000302197F91730002B06D17B685B693B6114
:103F400039697868FFF710FF97F917301846183766
:103F5000BD4680BD80B487B000AFF8607B600B4683
:103F6000FB721346BB720023FB757B6800221A703C
:103F7000FB7A042B36D801A252F823F0913F0008B7
:103F8000A33F0008B53F0008C73F0008D93F00081D
:103F9000BB7A1B11DBB203F00103DAB27B681A7043
:103FA00022E0BB7ADB10DBB203F00103DAB27B68FC
:103FB0001A7019E0BB7A9B10DBB203F00103DAB28E
:103FC0007B681A7010E0BB7A9B11DBB203F001032F
:103FD000DAB27B681A7007E0BB7ADB09DAB27B6879
:103FE0001A7001E0FC23FB7597F9173018461C374F
:103FF000BD465DF8047B704780B584B000AF786043
:1040000039600023FB730023BB7307F10E031A46CC
:104010000121786804F09BF90346FB7397F90F3090
:10402000002B07D1BA7B3B6800217868FFF792FF2D
:104030000346FB7397F90F30002B08D1BA7B3B681E
:10404000023301217868FFF785FF0346FB7397F978
:104050000F30002B08D1BA7B3B680133022178680E
:10406000FFF778FF0346FB7397F90F30002B08D159
:10407000BA7B3B68033303217868FFF76BFF034685
:10408000FB7397F90F30002B08D1BA7B3B680433E0
:1040900004217868FFF75EFF0346FB7397F90F3042
:1040A00018461037BD4680BD80B588B000AFF860B7
:1040B0000B467A60FB720023FB770023BB61002371
:1040C0007B6107F11002FB7A1946F86802F0E4FB05
:1040D0000346FB7797F91F30002B1CD13B69114A2F
:1040E000A2FB03239B09BB613A69BB694FF47A7158
:1040F00001FB03F3D31A7B61BB6919047A69134688
:104100001B049B1A03F5FA73064AA2FB03239B09BF
:10411000CA187B681A6097F91F3018462037BD46C9
:1041200080BD00BFD34D621080B584B000AF786011
:1041300039600023FB7307F10C031A46F8217868F5
:1041400004F08CF90346FB7397F90F30002B08D16C
:1041500007F108031A460421786804F0B5F903460C
:10416000FB7397F90F30002B0CD1BB89002B05D0C6
:10417000BB68BA89B3FBF2F23B681A603B681A6805
:104180007B689A6197F90F3018461037BD4680BD9D
:1041900080B485B000AF786039600023FB737B6822
:1041A0001B7FBB733B68BA7B1A7097F90F301846B8
:1041B0001437BD465DF8047B704780B586B000AF0C
:1041C000786039600023FB7507F10E031A46202141
:1041D000786804F043F90346FB7597F91730002B14
:1041E00018D1FB89002B09D17B681B6A3B613B68B6
:1041F0003A691A607B6800221A770BE0FB89DB00C2
:104200003B613B683A691A607B683A691A627B686D
:1042100001221A7797F9173018461837BD4680BD26
:1042200080B586B000AF78600B467B8013467B700C
:104230000023FB7500233B610023FB730023BB734A
:104240007B88052B02D9FC23FB755BE07B78002B78
:1042500006D100233B610023FB730123BB730AE0FB
:104260007B887A680C339B0013445B683B610023B6
:10427000BB730123FB737B88052B41D801A252F845
:1042800023F000BF9D420008A7420008BD4200087D
:10429000C7420008D1420008E94200087B68FA7B67
:1042A00083F828202EE03B695B0A9BB21A46442122
:1042B000786804F069F90346FB7523E07B68FA7BB4
:1042C00083F82A201EE07B68FA7B83F82B2019E014
:1042D000BB7B5B007B737B7BFE226021786804F0F4
:1042E0007DF90346FB750DE0BB7B1B017B737B7B7C
:1042F000EF226021786804F071F90346FB7501E054
:10430000FC23FB7597F91730002B0FD17B78002B1E
:1043100006D17B887A681344002283F8282005E0C0
:104320007B887A681344012283F8282097F9173094
:1043300018461837BD4680BD80B487B000AFF8601E
:104340000B467A607B810023FB757B89052B05D9A1
:10435000FC23FB757B6800221A7008E07B89FA68F1
:10436000134493F82830BB757B68BA7D1A7097F9AF
:10437000173018461C37BD465DF8047B70470000B7
:1043800080B586B000AFF8600B467A607B81002371
:10439000FB757B89FA68134493F82830BB75BB7DA5
:1043A000002B07D17B89FA680C339B0013447A6891
:1043B0005A6040E07B89052B30D801A252F823F0E7
:1043C000D9430008E1430008F7430008FF43000811
:1043D0000744000807440008FB687A685A631FE036
:1043E0007B685B0A9BB21A464421F86804F0CCF85B
:1043F0000346FB7514E0FB687A68DA6310E0FB683B
:104400007A681A640CE07B685B0A9BB21A466421E6
:10441000F86804F0B9F80346FB7501E0FC23FB756E
:1044200097F91730002B06D17B89FA680C339B0073
:1044300013447A685A6097F9173018461837BD4602
:1044400080BD00BF80B588B000AFF8600B467A60D1
:104450007B810023FB770023BB777B89052B47D823
:1044600001A252F823F000BF814400088D440008E7
:10447000B3440008BF440008CB440008CB44000804
:10448000FB685B6BBB610023BB7733E007F116036E
:104490001A464421F86803F0E1FF0346FB7797F9D9
:1044A0001F30002B02D1FB8A5B02BB610123BB776B
:1044B00020E0FB68DB6BBB610023BB771AE0FB6885
:1044C0001B6CBB610023BB7714E007F116031A468F
:1044D0006421F86803F0C2FF0346FB7797F91F30A9
:1044E000002B02D1FB8A5B02BB610023BB7701E09A
:1044F000FC23FB7797F91F30002B2AD1BB7F012BC0
:1045000024D1BB69002B10D17B89FA680C339B0046
:1045100013445B68BB617B68BA691A607B89FA687F
:104520001344002283F8282013E07B68BA691A60DC
:104530007B89FA680C339B001344BA695A607B8903
:10454000FA681344012283F8282002E07B68BA69E4
:104550001A6097F91F3018462037BD4680BD00BF4E
:1045600080B584B000AF786039600023FB7307F139
:104570000E031A460121786803F0E9FE0346FB7337
:1045800097F90F30002B0ED1BA7B7B6883F830216E
:10459000BB7B5BB2002B03DA3B6801221A7002E09E
:1045A0003B6800221A7097F90F30002B04D13B684A
:1045B0001A787B6883F84C2097F90F30184610372B
:1045C000BD4680BD80B584B000AF78600023FB732A
:1045D00007F10E0319467868FFF794FB0346FB7357
:1045E00097F90F30002B07D1BB7B002B04D17868E3
:1045F00000F098F80346FB7397F90F30002B04D1B5
:10460000786801F0FDFA0346FB7397F90F30002B31
:1046100006D1BB7B002B03D17B68032283F83221B8
:1046200097F90F3018461037BD4680BD80B586B06B
:1046300000AFF860B9607A600023FB7501237A68E7
:10464000B968F86801F09FFA0346FB7597F91730CF
:1046500018461837BD4680BD80B586B000AF78607B
:104660000B46FB700023FB757B6893F8DA30BB7553
:10467000BB7D012B05D0BB7D022B02D0BB7D032B64
:1046800047D107F10C0307F110020121786800F00F
:1046900083FB0346FB753B69B3F57F0F03D8FB68CB
:1046A000B3F57F0F35D997F91730002B31D1FB784F
:1046B000002B06D01A49786802F012FF0346FB75FA
:1046C00027E00422FF21786803F03AFF03461A46E8
:1046D000FB7D1343FB7500227021786803F030FFE7
:1046E00003461A46FB7D1343FB750022FF217868C1
:1046F00003F026FF03461A46FB7D1343FB75002299
:104700008021786803F01CFF03461A46FB7D1343A3
:10471000FB7597F9173018461837BD4680BD00BFA6
:104720008402002080B586B000AF78600023FB755E
:104730000123FB7307F10E0319467868FFF7E2FACD
:10474000BB7B032B52D0032B6ADC002B02D0012B46
:1047500032D065E001220021786803F0F1FE0346C3
:10476000FB75FB7B7B7397F91730002B5BD1002324
:104770003B613B69002B08D007F10D031A4600216D
:10478000786803F0E4FD0346FB753B6901333B6148
:104790007A7BFB7B1340DBB2FA7B9A4206D197F916
:1047A0001730002B02D13B69C72BE2D93B69C72BDD
:1047B00039D9F923FB7536E097F91730002B05D16D
:1047C00001217868FFF748FF0346FB7502220021AC
:1047D000786803F0B5FE0346FB7597F91730002B98
:1047E00023D17B68042283F832211EE097F9173029
:1047F000002B05D101217868FFF72EFF0346FB75DA
:1048000004220021786803F09BFE0346FB7597F9AC
:104810001730002B0BD17B68042283F8322106E08D
:10482000F823FB7504E000BF02E000BF00E000BF1A
:1048300097F9173018461837BD4680BD80B584B04B
:1048400000AF786039600023FB737B6893F8DA303F
:10485000BB73BB7B042B12D107F1080319467868A0
:1048600000F00EFB0346FB73BB68042B03D13B68CF
:1048700001221A701CE03B6800221A7018E007F150
:104880000D031A461421786803F061FD0346FB739B
:1048900097F90F30002B0BD17B7B03F00103002B2A
:1048A00003D03B6801221A7002E03B6800221A70B4
:1048B00097F90F3018461037BD4680BDB0B596B099
:1048C00002AF78603960002387F84F3007F1280283
:1048D0000C231421786803F095FD034687F84F30C8
:1048E00097F94F30002B40F0C8803B6800229A7542
:1048F0003B6800221A6097F832301B029BB297F88F
:1049000033201344A7F84C303B6800225A6097F8D4
:104910002E301B029BB297F82F2013449BB25B02F0
:104920007B643B687A6CDA6097F830301B029BB28C
:1049300097F831201344A7F84230B7F842305A02B2
:104940003B681A6197F82A301B029BB297F82B201C
:104950001344A7F840303B68B7F840209A8297F894
:10496000283087F83F307B68B3F84E31BB877B68CF
:1049700093F8313187F83B30BB8FB3F57A7F46D05F
:10498000BB8FB7F84C2002FB03F303F5FA73584AC8
:1049900082FB03129211DB17D31AA7F84C307B6805
:1049A0001B6A3B877B681B7F87F8373097F8373067
:1049B000002B2CD03B8FB7F8402002FB03F31A12D8
:1049C0007B6C9A420DD197F83B30002B04D042F219
:1049D000B823A7F84A3016E048F6E023A7F84A3093
:1049E00011E0B7F84C307A6C03FB02F23B8FB7F85A
:1049F000401001FB03F31B1219467B6C5B1AB2FBE0
:104A0000F3F3A7F84A30B7F84A30A7F84C3097F8D4
:104A10003B30002B0DD0B7F84C309B089AB23B6866
:104A20001A81B7F84C30DBB29B01DAB23B68DA7519
:104A300006E03B68B7F84C201A813B680022DA7523
:104A4000B7F8402097F83F1007F1360301933B6811
:104A5000009313467A6C786803F0A4F903461A466B
:104A600097F84F30134387F84F3097F94F30002BAA
:104A700003D197F836203B681A7697F94F30002B10
:104A80002FD17B6807F10C0403F150050FCD0FC443
:104A900095E8070084E807003B681B89BB823B68F8
:104AA000DB7D87F823303B685B89FB823B685B6872
:104AB0003B613B68DB68BB613B681B69FB613B6832
:104AC0009B8A3B843B681B7E87F824307B6803F11C
:104AD000500407F10C050FCD0FC495E8070084E8DA
:104AE000070097F94F3018465037BD46B0BD00BF9C
:104AF000D34D621080B584B000AF78603960002378
:104B0000FB7300217868FFF7D1F80346FB7397F930
:104B10000F30002B04D17868FFF754FD0346FB7378
:104B200097F90F30002B05D139687868FFF7C6FE7A
:104B30000346FB7397F90F30002B05D100217868ED
:104B400000F05EF90346FB7397F90F3018461037F3
:104B5000BD4680BD80B584B000AF78600846114680
:104B60001A460346FB700B46BB7013467B7000234E
:104B7000FB73FB78002B02D0F623FB7305E1BB78B7
:104B8000142B10D13B7E002B02D11023BB7301E00C
:104B90000123BB73BB7B1A468421786803F0D0FCE9
:104BA0000346FB73F1E0BB78152B40F097800122A0
:104BB000FF21786803F0C4FC03461A46FB7B1343CD
:104BC000FB7300220021786803F0BAFC03461A4602
:104BD000FB7B1343FB730022FF21786803F0B0FCDA
:104BE00003461A46FB7B1343FB730122802178683E
:104BF00003F0A6FC03461A46FB7B1343FB73022219
:104C00008521786803F09CFC03461A46FB7B13431E
:104C1000FB730422FF21786803F092FC03461A46D6
:104C2000FB7B1343FB730022CD21786803F088FCE3
:104C300003461A46FB7B1343FB731122CC21786891
:104C400003F07EFC03461A46FB7B1343FB730722EB
:104C5000FF21786803F074FC03461A46FB7B13437C
:104C6000FB730022BE21786803F06AFC03461A46F3
:104C7000FB7B1343FB730622FF21786803F060FC83
:104C800003461A46FB7B1343FB730922CC21786849
:104C900003F056FC03461A46FB7B1343FB730022CA
:104CA000FF21786803F04CFC03461A46FB7B134354
:104CB000FB730122FF21786803F042FC03461A4689
:104CC000FB7B1343FB7300220021786803F038FC60
:104CD00003461A46FB7B1343FB7356E097F90F30EC
:104CE000002B20D17B78042B1BD801A252F823F093
:104CF000054D00080B4D0008114D0008174D000828
:104D00001D4D00080023BB730DE00123BB730AE0B7
:104D10000223BB7307E00323BB7304E00423BB73CC
:104D200001E0F523FB7397F90F30002B07D1BB7B14
:104D30001A460A21786803F003FC0346FB7397F9CF
:104D40000F30002B0FD13B7E002B02D10023BB7311
:104D500001E01023BB73BB7BEF228421786803F052
:104D60003DFC0346FB7397F90F30002B03D17B68A2
:104D70007A7883F8DA2097F90F30002B05D10021DB
:104D8000786800F03DF80346FB7397F90F3018463A
:104D90001037BD4680BD00BF80B586B000AFF8605B
:104DA0007A603B600B46FB720023FB7507F114032E
:104DB0001A460E21F86803F051FB0346FB75BB8AC7
:104DC0005A040E4B13407A68136097F91730002B82
:104DD0000ED107F114031A460C21F86803F03EFBCC
:104DE0000346FB75BB8A5A04044B13403A681360B0
:104DF00097F9173018461837BD4680BD0000FE1FD2
:104E000080B584B000AF786039600023FB73002365
:104E1000BB7301220B21786803F092FB0346FB73FE
:104E200000220B21786803F08BFB03461A46FB7BBC
:104E30001343FB7307F10D031A461321786803F03F
:104E400086FA03461A46FB7B1343FB73BB7B013395
:104E5000BB737B7B03F00703002B06D0BB7B022BCD
:104E600003D897F90F30002BD3D0BB7B022B01D98D
:104E7000F423FB7397F90F3018461037BD4680BDF9
:104E800080B584B000AF786039600023FB7307F110
:104E90000E031A461321786803F059FA0346FB7390
:104EA000BB7B03F007023B681A60BB7B03F018036F
:104EB000002B01D0FA23FB7397F90F3018461037F7
:104EC000BD4680BD80B586B000AFF860B9607A603D
:104ED0000023FB757A68B968F86800F003FA0346A6
:104EE000FB7597F9173018461837BD4680BD80B559
:104EF00084B000AF786039600023FB7340F2FF7329
:104F0000BB814FF480537B8107F108031A462821A7
:104F1000786803F0A3FA0346FB7397F90F30002B70
:104F20001ED13B89C3F30B039BB23B813B891A46DD
:104F3000B7F90C309A420BDD3A897B89D31A9BB2C0
:104F40001BB21A46FA2303FB02F23B681A6007E021
:104F50003B891BB21A46FA2303FB02F23B681A6034
:104F600097F90F3018461037BD4680BD80B48BB01E
:104F700000AFF860B9607A603B600823BB61002332
:104F8000BB773B684FF0FF321A607A68BB69B2FBAF
:104F9000F3F37B617B68BA69B3FBF2F2B96901FB99
:104FA00002F29B1A3B617B697B6230E000233B622B
:104FB000FA687B6A13441B78FB777A6A7B699A42AA
:104FC0001ED1FA7F3B6942FA03F3FB773B693B62F0
:104FD00016E0FB7F03F00103002B0BD00123BB770E
:104FE0007B6ABA6903FB02F23B6A13441A463B68C8
:104FF0001A6009E0FB7F5B08FB773B6A01333B6289
:105000003A6ABB699A42E4D37B6A01337B627A6A6B
:10501000BB689A4202D2BB7F002BC7D000BF2C379F
:10502000BD465DF8047B704780B485B000AF786002
:105030000123FB737B689B09BB60074ABB6852F87E
:105040002330002B01D10023FB73FB7B1846143760
:10505000BD465DF8047B70473C04002080B489B0F5
:1050600000AFF860B9607A600023FB770823BB616A
:105070007A68BB69B2FBF3F37B617B68BA69B3FB07
:10508000F2F2B96901FB02F29B1A3B617A69BB68D3
:105090009A4202D3CE23FB7710E0FA687B6913446F
:1050A0001B785AB201213B6901FA03F35BB2134347
:1050B00059B2FA687B691344CAB21A7097F91F3063
:1050C00018462437BD465DF8047B704780B584B030
:1050D00000AF7860396006233A68B021786803F041
:1050E00061F90346FB7397F90F3018461037BD4638
:1050F00080BD80B584B000AF7860396006233A681F
:10510000B021786803F07EF90346FB7397F90F30FE
:1051100018461037BD4680BD80B58CB000AFF86032
:105120007A603B600B46FB72002387F82F303B6CA4
:10513000FB613B6C3B620023BB622BE007F11C036D
:105140003A6AB96B7868FFF711FFFB69B3F1FF3F6B
:1051500003D1CE2387F82F3020E0FB691A46FB6B82
:1051600013441846FFF760FF03461A46FB7A934242
:1051700003D0CE2387F82F3010E0FB693B623A6AF8
:10518000B96B3868FFF76AFF3B6A01333B62BB6A61
:105190000133BB62BA6A7B6C9A42CFD3BB6C3A6A6A
:1051A0001A6097F92F30002B06D13968F868FFF79D
:1051B0008DFF034687F82F3097F92F30002B21D130
:1051C00007F114031946F868FFF793FF034687F8C1
:1051D0002F3000237B6211E03A687B6A13441A780F
:1051E00007F114017B6A0B441B789A4203D0CE234B
:1051F00087F82F3006E07B6A01337B627A6ABB6BEB
:105200009A42E9D397F92F3018463037BD4680BD12
:1052100080B58AB000AF78603960002387F8273006
:10522000002387F826307B6893F8303187F82630E2
:1052300097F92730002B07D1C0220121786803F0AD
:105240007FF9034687F8273097F92730002B08D1DC
:1052500007F1080319467868FFF74CFC034687F806
:10526000273097F92730002B07D10122FF217868DA
:1052700003F066F9034687F8273097F92730002BAB
:1052800007D13A68B621786803F0E8F8034687F852
:10529000273097F92730002B07D10022FF217868AB
:1052A00003F04EF9034687F8273097F92730002B93
:1052B00012D197F826301A460121786803F040F998
:1052C000034687F8273097F92730002B04D17B68F5
:1052D00097F8262083F8302197F927301846283789
:1052E000BD4680BD90B59DB006AFF860B9607A60EC
:1052F000002387F85730B42387F83A3003237B63C1
:105300002C233B6300233B650023BB6100237B61AF
:105310004FF42063FB850023FB640023BB6406235A
:10532000BB6200237B6200237B64002387F8433049
:1053300000237B7400233B740023FB63002387F866
:105340003B30FB68B3F83A31FB850023BB6409E0CE
:10535000FA68BB6C134403F5927300221A70BB6C9D
:105360000133BB64BA6CBB6A9A42F1D30122FF21BC
:10537000F86803F0E5F8034687F8573097F9573097
:10538000002B07D100224F21F86803F0D9F803461B
:1053900087F8573097F95730002B07D12C224E2130
:1053A000F86803F0CDF8034687F8573097F957307F
:1053B000002B07D10022FF21F86803F0C1F8034653
:1053C00087F8573097F95730002B09D197F83A30C2
:1053D0001A46B621F86803F0B3F8034687F8573049
:1053E00097F95730002B07D100228021F86803F08D
:1053F000A7F8034687F8573097F95730002B0AD1A2
:1054000007F1100207F111010023F86800F0BBFB5F
:10541000034687F8573097F95730002B21D10023E6
:105420003B653B6DBB610023FB64FB6CD9B2FB6841
:1054300003F59570FB6803F5927497F83A3007F11D
:10544000180204927A6B03923A6D02920193BB6A3E
:10545000009323460246F868FFF75EFE034687F88E
:10546000573097F95730002B74D1BB693B6507F172
:1054700012031946F868FFF7CBFE034687F857304A
:1054800097F95730002B61D17B8AFA8D9A425DD211
:105490000023BB6409E0FA68BB6C134403F5927304
:1054A00000221A70BB6C0133BB64BA6CBB6A9A42AF
:1054B000F1D302E03B6D01333B6597F83A203B6D39
:1054C00013441846FFF7B0FD0346002B03D13A6D95
:1054D0003B6B9A42EED30123FB64FB6CD9B2FB68B1
:1054E00003F59570FB6803F5927497F83A3007F16D
:1054F000180204927A6B03923A6D02920193BB6A8E
:10550000009323460246F868FFF706FE034687F835
:10551000573097F95730002B1BD1BB693B6507F11A
:1055200012031946F868FFF773FE034687F85730F1
:1055300097F95730002B0CD17B8AFA8D9A4208D20A
:10554000012387F83B307B6BFB6302E00023FB64A5
:1055500000E000BF97F95730002B40F0AF807B8A06
:10556000FA8D9A4240F2AA80FB6C87F83B307B6B45
:10557000FB63FB6803F5927107F11C03BA6A1846D6
:1055800017F025FD7B8A1A46FB8DD31A002BB8BF76
:105590005B427B64002387F8433086E0FB6803F5B9
:1055A000957007F114033A6DB96AFFF7DFFC7B6968
:1055B000B3F1FF3F03D1CE2387F857307EE0FB6B7A
:1055C0000133FB6397F83A307A6913441846FFF7C2
:1055D0002BFD03461A46FB6C934203D0CE2387F87B
:1055E00057306BE07B693B65FB6803F592733A6D5E
:1055F000B96A1846FFF732FD034687F8573097F926
:105600005730002B0CD13B6D01333B65FB6803F534
:1056100092731946F868FFF759FD034687F857302B
:1056200097F95730002B46D107F112031946F86855
:10563000FFF7EEFD034687F8573097F95730002BF8
:105640003BD17B8A1A46FB8DD31A002BB8BF5B4235
:105650007B627B8AFA8D9A421CD27A6A7B6C9A4270
:1056600014D907F11C031946F868FFF72FFD03460C
:1056700087F85730FB6803F5927307F11C01BA6A8B
:10568000184617F0A4FCFB6B013BFB63012387F872
:1056900043300AE07B6A7B64FB6803F5927107F193
:1056A0001C03BA6A184617F092FC97F84330002B97
:1056B0003FF474AF02E000BF00E000BF97F957303D
:1056C000002B15D1BB68FA6B1A607B6897F83B20FA
:1056D0001A70FB68012283F81521BB681B68DAB2D7
:1056E000FB6883F813217B681A78FB6883F8142120
:1056F00097F9573018465C37BD4690BD90B593B0CA
:1057000006AFF860B9601346FB71002387F82F30AD
:105710000023BB62B42387F823300623FB612C23CC
:10572000BB610122FF21F86802F00AFF034687F8F7
:105730002F3097F92F30002B07D100224F21F86826
:1057400002F0FEFE034687F82F3097F92F30002B2A
:1057500007D12C224E21F86802F0F2FE034687F8AA
:105760002F3097F92F30002B07D10022FF21F86846
:1057700002F0E6FE034687F82F3097F92F30002B12
:1057800009D197F823301A46B621F86802F0D8FEFE
:10579000034687F82F3000237B6209E0FA687B6AB2
:1057A000134403F5927300221A707B6A01337B6203
:1057B0007A6AFB699A42F1D3FB79002B11D002E09F
:1057C000BB6A0133BB6297F82320BB6A13441846B7
:1057D000FFF72AFC0346002B03D1BA6ABB699A4241
:1057E000EED3FB6803F59570FB6803F5927497F8A8
:1057F0002330F97907F114020492BA680392BA6A65
:1058000002920193FB69009323460246F868FFF772
:1058100083FC034687F82F3097F92F30002B0CD1EB
:10582000FB68012283F81521BB68DAB2FB6883F8B4
:105830001321FB68FA7983F8142197F92F30184661
:105840003437BD4690BD80B584B000AF78600B465C
:10585000FB700023FB7397F90F30002B0AD1FB7804
:1058600043F00103DBB21A460021786802F068FEBB
:105870000346FB7397F90F30002B04D1786800F0D2
:10588000BFF90346FB7397F90F30002B05D10021B8
:105890007868FFF7B5FA0346FB7397F90F30002BD2
:1058A00006D100220021786802F04AFE0346FB730D
:1058B00097F90F3018461037BD4680BD80B584B0CB
:1058C00000AF7860084611461A460346FB700B4647
:1058D000BB7013467B700023FB730023BB73012254
:1058E000FF21786802F02CFE03461A46FB7B134327
:1058F000FB7300220021786802F022FE03461A465C
:10590000FB7B1343FB730022FF21786802F018FE33
:1059100003461A46FB7B1343FB73FB78002B1ED018
:1059200097F82030002B09D0BA69CB21786802F0B3
:105930000EFD03461A46FB7B1343FB7397F8243096
:10594000002B2AD007F10E031A46EE21786802F0E8
:10595000FEFC03461A46FB7B1343FB731DE097F8DE
:105960002030002B0AD0BB781A46CB21786802F091
:10597000E7FD03461A46FB7B1343FB7397F824307D
:10598000002B0AD07B788022EE21786802F026FE78
:1059900003461A46FB7B1343FB730122FF21786801
:1059A00002F0CEFD03461A46FB7B1343FB73012234
:1059B0000021786802F0C4FD03461A46FB7B1343BE
:1059C000FB730022FF21786802F0BAFD03461A46F5
:1059D000FB7B1343FB73BB7B23F01003DAB2FB6941
:1059E0001A7097F90F3018461037BD4680BD80B544
:1059F0008AB004AFF860B96011461A460B46FB71D5
:105A00001346BB710023FB750023BB7500237B7518
:105A100000233B750023FB74BB79002B03D0FB688C
:105A200093F83031BB7501220121F86802F088FD3E
:105A30000346FB7597F91730002B05D14021F86814
:105A4000FFF701FF0346FB7597F91730002B15D1BF
:105A5000FB79012B12D1397D7A7D00230393012339
:105A6000029307F113030193BB6800930B460121D6
:105A7000F868FFF723FF0346FB7502E0BB680022CE
:105A80001A7097F91730002B12D1BB79002B0FD069
:105A9000BB7D1A460121F86802F052FD0346FB75F2
:105AA00097F91730002B03D1FB68BA7D83F83021BA
:105AB00097F9173018461837BD4680BD80B58AB0B3
:105AC00004AFF860B96011461A460B46FB711346E5
:105AD000BB710023FB750023BB7500237B7500237E
